:100000000C9429240C945A240C945A240C945A24A9
:100010000C945A240C945A240C945A240C945A2468
:100020000C945A240C945A240C945A240C945A2458
:100030000C945A240C94CBE50C945A240C945A2416
:100040000C945A240C949E8F0C945A240C945A2489
:100050000C945A240C945A240C941DA50C94A3DFE0
:100060000C945A240C94DC330C945A240C945A2487
:100070000C945A240C945A240C945A240C945A2408
:100080000C945A240C945A240C945A240C945A24F8
:100090000C945A240C945A240C945A240C9475DE13
:1000A0000C945A240C945A240C945A240C945A24D8
:1000B0000C945A240C945A240C945A240C945A24C8
:1000C0000C945A240C945A240C945A240C945A24B8
:1000D0000C945A240C945A240C945A240C945A24A8
:1000E0000C945A24CB25EE25F025FC250226052666
:1000F0000F2698A5A7A5C3A5D1A5EBA5F9A513A67D
:1001000017A619A61DA625A6C7E0CCE0D1E0DBE026
:10011000E5E05EE1EFE0F7E0FFE009E113E11DE17A
:100120002CE136E15EE140E14AE154E180E183E126
:1001300072E176E17CE1BAE187E18BE191E195E161
:1001400099E19FE1A3E1A7E1BAE1ADE1B1E1B5E158
:10015000084AD73B3BCE016E84BCBFFDC12F3D6C2E
:1001600074319ABD56833DDA3D00C77F11BED9E494
:10017000BB4C3E916BAAAABE000000803F05A84C74
:10018000CDB2D44EB93836A9020C50B99186880840
:100190003CA6AAAA2ABE000000803F00FFE0FFD1D3
:1001A000A4AFFF32FFD0FFFEFFE0FFD1AC00AEA551
:1001B000FFD0FFFEFFE0FFD11004FFFEFFD0FFE005
:1001C000FFC1FFD140A1C0A6A22FF800278118AC23
:1001D00000A4AFFF32FFD0FFFE00091200FC0A01AD
:1001E000E803D720FFFD0EFD0BFD00000009000E07
:1001F000010B0B09040080808080808080000080DB
:100200008004040409030790909090080A0A0900EA
:1002100000242424FF2424FF242424070B0B090199
:10022000FF107C929050381412927C10070A0A0931
:10023000010042A4A4481010244A4A84070A0A096B
:1002400001006090909060629488946201040409B7
:10025000040780808080030C0C0903FF204040804D
:100260008080808080404020030C0C0903FF804088
:10027000402020202020204040800707070901035C
:1002800010925438549210070707090101101010FA
:10029000FE1010100204040904FEC0C040800701D3
:1002A00001090104FE020202090400C0C0070A0A93
:1002B00009010002040408101020404080070A0AC7
:1002C00009010038448282828282824438070A0A05
:1002D000090100103050901010101010FE070A0A8B
:1002E000090100384482020408102040FE070A0A6F
:1002F000090100FE020408180402028478070A0AB1
:10030000090100040C14244484FE040404070A0AAE
:10031000090100FE808080F80402028478070A0A3E
:100320000901003C408080B8C482824438070A0A30
:10033000090100FE020404080810101010070A0A40
:1003400009010038448244384482824438070A0A4A
:1003500009010038448282463A0202047802070703
:10036000090400C0C0000000C0C00209090904FE61
:10037000C0C0000000C0C040800509090902000893
:100380001020408040201008070404090102FE00EC
:1003900000FE0509090902008040201008102040D5
:1003A00080070A0A0901003844820204081010007C
:1003B00010070A0A09010038449AAAAAAAAA9C406E
:1003C0003C070A0A09010010282828447C4482823C
:1003D00082070A0A090100F8848284F884828284F0
:1003E000F8070A0A0901003C428080808080804230
:1003F0003C070A0A090100F8848282828282828490
:10040000F8070A0A090100FE808080F88080808059
:10041000FE070A0A090100FE808080F88080808043
:1004200080070A0A09010038448280808E82824453
:1004300038070A0A09010082828282FE8282828251
:1004400082050A0A090200F820202020202020200E
:10045000F8070A0A0901003E080808080808888801
:1004600070070A0A09010082848890A0D0888482DB
:1004700082070A0A09010080808080808080808055
:10048000FE070A0A0901008282C6AA92828282823B
:1004900082070A0A0901008282C2A2928A868282A7
:1004A00082070A0A0901007C828282828282828219
:1004B0007C070A0A090100F884828284F88080801F
:1004C00080080B0B0901FF384482828282828A44B1
:1004D0003A01070A0A090100F884828284F89088A8
:1004E0008482070A0A0901007C8280807C02020261
:1004F000827C070A0A090100FE101010101010106B
:100500001010070A0A090100828282828282828296
:100510004438070A0A090100828282444444282898
:100520002810070A0A09010082828282929292921E
:10053000AA44070A0A0901008282442810102844AC
:100540008282070A0A0901008282442810101010D2
:100550001010070A0A090100FE020408102040805A
:1005600080FE040C0C0903FFF08080808080808076
:10057000808080F0070A0A090100804040201010A6
:1005800008040402040C0C0902FFF01010101010F3
:100590001010101010F007040409010610284482FE
:1005A0000801010900FFFF03030309030A8040203B
:1005B0000707070901007C02027E82867A070A0A81
:1005C000090100808080BCC2828282C2BC0707070A
:1005D0000901007C82808080827C070A0A09010070
:1005E0000202027A86828282867A07070709010060
:1005F0007C8282FE80827C070A0A0901001C22227A
:100600002020F820202020070A0A0901FD7A84848E
:100610008478807C82827C070A0A090100808080BD
:10062000BCC28282828282050A0A0902006000003E
:10063000E02020202020F8050D0D0902FD18000003
:1006400038080808080808888870070A0A0901009D
:10065000808080848890B0C88482050A0A090200DC
:10066000E02020202020202020F807070709010093
:10067000EC929292929282070707090100BCC28213
:10068000828282820707070901007C82828282823D
:100690007C070A0A0901FDB8C4828282C4B880803E
:1006A00080070A0A0901FD3A46828282463A02021E
:1006B000020707070901009C6242404040400707CB
:1006C000070901007C82807C02827C0709090901FC
:1006D000002020FC20202020221C07070709010001
:1006E0008282828282867A07070709010082824419
:1006F000442828100707070901008282929292AAD3
:100700004407070709010082442810284482070A89
:100710000A0901FD4242242424181810906007079A
:1007200007090100FE0408102040FE060B0B090219
:10073000001C20202020C0202020201C010C0C099F
:1007400004FF808080808080808080808080060B95
:100750000B090100E0101010100C10101010E00731
:10076000030309010762928CFFFFFFFFFFFFFFFFFA
:10077000FFFFFFFFFFFFFFFFFFFFFFFFFFFFFFFF89
:10078000FFFFFFFFFFFFFFFFFF00000009000E015A
:100790000B0B0904008080000080808080808080B6
:1007A00006080809010008789490A0A47840070A78
:1007B0000A0901001C222020F8202060A25C070604
:1007C00006090103827C44447C82070A0A0901006D
:1007D000828244287C107C101010010B0B0904FF4E
:1007E0008080808080008080808080040B0B0902E4
:1007F000FF6090806090909060109060030202090A
:10080000030BA0A00809090900013C4299A5A1A574
:1008100099423C050707090103609070907800F841
:100820000708080901011224489090482412060480
:1008300004090102FC040404050101090204F8088A
:1008400009090900013C42B9A5BDA9A5423C060120
:1008500001090109FC040404090306609090600783
:100860000909090101101010FE10101000FE040605
:10087000060901046090106080F004060609010476
:1008800060902010906003030309030A2040800752
:1008900009090901FE8282828282C6BA8080070A23
:1008A0000A0901007E8A8A8A7A0A0A0A0A0A020268
:1008B00002090404C0C00403030902FD2090600380
:1008C000060609010440C0404040E0050606090153
:1008D000047088887000F80708080901019048240E
:1008E0001212244890070A0A09010040C040404201
:1008F000E60A121A06070A0A09010040C040404CE5
:10090000F2020C101E070A0A0901006090201092E2
:10091000660A121A06070A0A0901001000101020C0
:10092000408082827C070E0E090100201008001012
:10093000282828447C44828282070E0E0901000880
:1009400010200010282828447C44828282070E0E42
:100950000901001028440010282828447C44828281
:1009600082070D0D09010034580010282828447C06
:1009700044828282070D0D090100282800102828D2
:1009800028447C44828282070E0E09010010282828
:100990001010282828447C44828282070A0A090110
:1009A000001E2828284E784888888E070D0D0901DA
:1009B000FD3C42808080808080423C082418070EE5
:1009C0000E09010020100800FE808080F8808080E1
:1009D00080FE070E0E09010008102000FE808080B6
:1009E000F880808080FE070E0E0901001028440068
:1009F000FE808080F880808080FE070D0D09010058
:100A0000282800FE808080F880808080FE050E0E01
:100A100009020040201000F8202020202020202063
:100A2000F8050E0E09020010204000F820202020BA
:100A300020202020F8050E0E09020020508800F822
:100A40002020202020202020F8050D0D0902005034
:100A50005000F82020202020202020F8070A0A0932
:100A6000010078444242F24242424478070D0D09A7
:100A700001003458008282C2A2928A868282820752
:100A80000E0E090100201008007C82828282828280
:100A900082827C070E0E090100081020007C8282F1
:100AA0008282828282827C070E0E09010010284415
:100AB000007C82828282828282827C070D0D090103
:100AC000003458007C82828282828282827C070D7E
:100AD0000D0901002828007C828282828282828223
:100AE0007C07070709010182442810284482070C6B
:100AF0000C0901FF027C868A8A9292A2A2C27C80A3
:100B0000070E0E0901002010080082828282828274
:100B100082824438070E0E090100081020008282EC
:100B20008282828282824438070E0E0901001028D8
:100B3000440082828282828282824438070D0D09BB
:100B400001002828008282828282828282443807C1
:100B50000E0E090100081020008282442810101097
:100B6000101010070A0A0901008080FC828282FCB2
:100B7000808080060A0A09010038444448D048446D
:100B8000444458070B0B090100201008007C0202A6
:100B90007E82867A070B0B090100081020007C0278
:100BA000027E82867A070B0B090100102844007C24
:100BB00002027E82867A070A0A0901003458007C04
:100BC00002027E82867A070A0A0901002828007C30
:100BD00002027E82867A070C0C0901001028281078
:100BE000007C02027E82867A0707070901006C12E8
:100BF000127E90926C070A0A0901FD7C8280808037
:100C0000827C104830070B0B090100201008007C83
:100C10008282FE80827C070B0B09010008102000F5
:100C20007C8282FE80827C070B0B09010010284425
:100C3000007C8282FE80827C070A0A090100282843
:100C4000007C8282FE80827C050C0C0902008040C0
:100C5000200000E02020202020F8050C0C090200D4
:100C60001020400000E02020202020F8050C0C0976
:100C700002002050880000E02020202020F8050BF2
:100C80000B09020050500000E02020202020F8072F
:100C90000B0B090100483050083C448282824438E2
:100CA000070A0A090100345800BCC282828282828B
:100CB000070B0B090100201008007C8282828282CF
:100CC0007C070B0B090100081020007C82828282C5
:100CD000827C070B0B090100102844007C82828271
:100CE00082827C070A0A0901003458007C828282D1
:100CF00082827C070A0A0901002828007C828282FD
:100D000082827C07090909010010381000FE0010DA
:100D100038100709090901FF027C8A8A92A2A27C85
:100D200080070B0B09010040201000828282828222
:100D3000867A070B0B09010008102000828282824C
:100D400082867A070B0B09010010284400828282F8
:100D50008282867A070A0A09010028280082828294
:100D60008282867A070E0E0901FD040810004242B5
:100D70002424241818109060070B0B0901FE8080B2
:100D8000B8C4828282C4B88080070D0D0901FD2499
:100D90002400424224242418181090600105080001
:100DA000FF060121023520FFFF07FF06FF09005063
:100DB000221656808080800080153353A0A0A002A8
:100DC00057575050F850F850500257572070A070A5
:100DD00028702013355580A040A02002475740A01E
:100DE000A040A0A05025135380808012265640803A
:100DF0008080804012265680404040408002455509
:100E00009060F060900255552020F8202011335357
:100E1000604080044151F011335340E04002465697
:100E200010102040808012365640A0A0A0A0401292
:100E3000365640C0404040E0024656609010608008
:100E4000F0024656F020601090600246562060A0E6
:100E5000F02020024656F080E01090600246566076
:100E600080E0909060024656F010202040400246FC
:100E7000566090609090600246566090907010604E
:100E8000122555C0C000C0C01136566060006040D9
:100E900080123656204080804020034353F000F0FB
:100EA00012365680402020408012365640A0204006
:100EB0000040015858304898A8A890403002465643
:100EC000609090F09090024656E090E09090E002A2
:100ED0004656609080809060024656E090909090D8
:100EE000E0024656F080E08080F0024656F080E056
:100EF000808080024656609080B090600246569096
:100F000090F0909090123656E040404040E002460B
:100F10005670202020A04002465690A0C0A0A0906D
:100F20000246568080808080F002465690F0F09015
:100F3000909002465690D0F0B0B090024656609025
:100F400090909060024656E09090E0808001475774
:100F5000609090D0B06010024656E09090E0909083
:100F6000024656609040209060123656E040404065
:100F70004040024656909090909060024656909065
:100F800090906060024656909090F0F09002465625
:100F900090906060909002565688885020202002E1
:100FA0004656F010204080F0123656E08080808057
:100FB000E0024656808040201010123656E0202075
:100FC0002020E016325240A0014151F016225280FA
:100FD00040024454709090700246568080E0909099
:100FE000E012345460808060024656101070909079
:100FF0007002445460B0C060024656205040E04049
:101000004001455560907010600246568080E09027
:1010100090901236564000C04040E01137572000F3
:10102000202020A040024656808090E0909012360A
:1010300056C040404040E0025454D0A8A8A8024402
:1010400054E090909002445460909060014555E0C7
:1010500090E080800145557090701010024454A0BB
:10106000D0808012345460C020C00246564040E018
:1010700040502002445490909070123454A0A0A08C
:101080004002545488A8A8500244549060609001D3
:1010900045559090709060024454F02040F0024713
:1010A00057304020C02040302216568080808080FB
:1010B00080024757C02040304020C006425250A016
:1010C000FFFFFFFFFFFFFFFFFFFFFFFFFFFFFFFF30
:1010D000FFFFFFFFFFFFFFFFFFFFFFFFFFFFFFFF20
:1010E000FF090050221656800080808080014656FD
:1010F0002070A0A070200246562050E04050A00270
:10110000555588705070880256568850F820F8203F
:10111000221757808080008080800247577080E0CF
:10112000907010E0173151A002565670A8C8C8A898
:101130007014355560A06000E003435350A0501276
:101140003353E02020143151E002565670E8D8E8BD
:10115000D870173151E015335340A0401235554037
:10116000E04000E014355540A02040E0143555C063
:1011700020C020C01622524080014555909090E03A
:101180008002565678E8E8682828241151801122F8
:1011900052408014355540C04040E014355540A0C1
:1011A0004000E0034353A050A0024757808080A036
:1011B00060F0200247578080A0D01020700247576F
:1011C00080408060A0F02012365640004080A04051
:1011D00002475740206090F09090024757204060AF
:1011E00090F0909002475760906090F09090024786
:1011F0005750A06090F0909002475790006090F098
:10120000909002475760906090F090900246567020
:10121000A0A0F0A0B001475760908080906040028D
:1012200047574020F080E080F00247572040F08090
:10123000E080F00247576090F080E080F00247576E
:101240009000F080E080F01237578040E04040404E
:10125000E01237572040E0404040E012375740A0AE
:10126000E0404040E0123757A000E0404040E0023C
:1012700056567048E848487002475750A090D0B082
:10128000909002475740206090909060024757200E
:10129000406090909060024757609060909090609E
:1012A00002475750A06090909060024757900060AE
:1012B00090909060123353A040A002465670B0B098
:1012C000D0D0E0024757402090909090600247575E
:1012D000204090909090600247576090909090903E
:1012E00060024757900090909090600257571020EE
:1012F000885020202002465680E09090E0800246F0
:10130000566090A0A090A002475740200070909097
:10131000700247572040007090907002475720504D
:10132000007090907002475750A00070909070022B
:1013300046565000709090700247576090607090D1
:101340009070025454F068B0781135556080806018
:101350004002475740200060B0C06002475720401D
:101360000060B0C06002475760900060B0C060028B
:101370004656500060B0C060123757804000C040F1
:1013800040E0123757204000C04040E0123757403D
:10139000A000C04040E0123656A000C04040E0022D
:1013A0004757A040A01070906002475750A000E03F
:1013B00090909002475740200060909060024757FD
:1013C00020400060909060024757609000609090CD
:1013D0006002475750A0006090906002465690000F
:1013E000609090601235554000E000400244547017
:1013F000B0D0E002475740200090909070024757CD
:10140000204000909090700247576090009090901C
:10141000700246569000909090700148582040000D
:1014200090907090600147578080E090E08080014C
:1014300047579000909070906048617264636F6449
:1014400065642044656661756C74205365747469C5
:101450006E6773204C6F616465640053746F7265CE
:10146000642073657474696E677320726574726941
:1014700065766564002044002049002020204D331B
:1014800030312050005049442073657474696E6790
:10149000733A00205A0020590020204D3230362067
:1014A0005800486F6D65206F666673657420286DFF
:1014B0006D293A00204500205A00205800204200A3
:1014C00020540020204D3230352053004164766195
:1014D0006E636564207661726961626C65733A203F
:1014E000533D4D696E2066656564726174652028A0
:1014F0006D6D2F73292C20543D4D696E20747261DF
:1015000076656C20666565647261746520286D6D12
:101510002F73292C20423D6D696E696D756D2073A6
:1015200065676D656E742074696D6520286D73291B
:101530002C20583D6D6178696D756D205859206A71
:1015400065726B20286D6D2F73292C20205A3D6DFC
:101550006178696D756D205A206A65726B20286DFF
:101560006D2F73292C2020453D6D6178696D756D57
:101570002045206A65726B20286D6D2F732900202D
:10158000540020204D323034205300416363656C99
:1015900065726174696F6E3A20533D616363656C77
:1015A00065726174696F6E2C20543D72657472614E
:1015B000637420616363656C65726174696F6E004A
:1015C000204500205A0020590020204D3230312083
:1015D00058004D6178696D756D20416363656C6578
:1015E000726174696F6E20286D6D2F7332293A0015
:1015F000204500205A0020590020204D3230332051
:1016000058004D6178696D756D206665656472611D
:1016100074657320286D6D2F73293A0020450020D2
:101620005A0020590020204D39322058005374654B
:1016300070732070657220756E69743A005365741A
:1016400074696E67732053746F7265640053544FEE
:10165000505045442E20005072696E74657220739C
:10166000746F707065642064756520746F20657296
:10167000726F72732E2046697820746865206572D7
:10168000726F7220616E6420757365204D3939392F
:1016900020746F20726573746172742E20285465F3
:1016A0006D706572617475726520697320726573FF
:1016B00065742E20536574206974206166746572A8
:1016C0002072657374617274696E6729004B494CAE
:1016D0004C45442E20005072696E7465722068611A
:1016E0006C7465642E206B696C6C28292063616CB6
:1016F0006C656421006F6B00526573656E643A20FF
:10170000002200556E6B6E6F776E20636F6D6D619A
:101710006E643A2022000045787472756465004852
:10172000656174696E6720646F6E652E0020573A9C
:101730000020453A00543A0048656174696E672E8E
:101740002E2E004368616E67652066696C616D6569
:101750006E74203F004368616E67652066696C6146
:101760006D656E742032004368616E67652066693E
:101770006C616D656E742031005A204F666673652A
:1017800074203A20007A5F6D61783A20007A5F6DAC
:10179000696E3A20005A204F6666736574005A20BD
:1017A0004F6666736574206F6B006C636420636FB3
:1017B0006E74726173742076616C75653A200048AE
:1017C0006F74656E64206F6666736574733A007A31
:1017D0005F6D61783A20007A5F6D696E3A2000791A
:1017E0005F6D61783A2000795F6D696E3A2000780C
:1017F0005F6D61783A2000785F6D696E3A20002055
:101800005A3A0020593A0020436F756E7420583AB6
:10181000200020453A00205A3A0020593A00583A10
:10182000004649524D574152455F4E414D453A4D54
:1018300061726C696E20312E302E322B2044657619
:10184000656C6F706D656E742046726F6D204172AD
:10185000636869766520534F555243455F434F4453
:10186000455F55524C3A68747470733A2F2F67690C
:10187000746875622E636F6D2F4D61726C696E4670
:1018800069726D776172652F4D61726C696E20505F
:10189000524F544F434F4C5F56455253494F4E3A67
:1018A000312E30204D414348494E455F54595045F3
:1018B0003A47696761626F742045585452554445F0
:1018C000525F434F554E543A3220555549443A30B1
:1018D000303030303030302D303030302D3030300E
:1018E000302D303030302D303030303030303030FE
:1018F0003030300A0047696761626F74204F666656
:101900002E0047696761626F742072656164792E89
:101910000042656420646F6E652E0020423A00200C
:10192000453A00543A004265642048656174696E26
:10193000672E0048656174696E6720646F6E652E5E
:101940000020573A0020453A00543A004865617437
:10195000696E672E2E2E002042403A0020403A0049
:10196000202F003A00205400202F0020423A00206F
:101970002F006F6B20543A002569206D696E2C2072
:1019800025692073656300456E642066696C652077
:101990006C69737400426567696E2066696C6520C6
:1019A0006C697374004E6F206D6F76652E00476909
:1019B0006761626F742072656164792E005265738D
:1019C000756D696E67207072696E74005761697415
:1019D00020666F7220757365722E2E2E00536C6513
:1019E00065702E2E2E00256920686F757273202574
:1019F00069206D696E7574657300446F6E65207043
:101A000072696E74696E672066696C650053544F25
:101A1000505045442E20005072696E7465722073D8
:101A2000746F707065642064756520746F206572D2
:101A3000726F72732E204669782074686520657213
:101A4000726F7220616E6420757365204D3939396B
:101A500020746F20726573746172742E202854652F
:101A60006D7065726174757265206973207265733B
:101A700065742E20536574206974206166746572E4
:101A80002072657374617274696E6729004E6F20ED
:101A90004C696E65204E756D626572207769746859
:101AA00020636865636B73756D2C204C61737420C3
:101AB0004C696E653A20004E6F20436865636B7316
:101AC000756D2077697468206C696E65206E756D20
:101AD0006265722C204C617374204C696E653A20EB
:101AE00000636865636B73756D206D69736D6174F8
:101AF00063682C204C617374204C696E653A200039
:101B00004C696E65204E756D626572206973206E3A
:101B10006F74204C617374204C696E65204E756D36
:101B20006265722B312C204C617374204C696E6598
:101B30003A20004D31313000446F6E65207361767C
:101B4000696E672066696C652E006F6B004D3239D7
:101B5000002020506C616E6E65724275666665721B
:101B600042797465733A20002046726565204D65A0
:101B70006D6F72793A200046656220323020323033
:101B8000313600436F6D70696C65643A20002847F8
:101B900042332056342E312E322044452900207CF9
:101BA00020417574686F723A2000466562203230B9
:101BB00020323031362032303A32343A343100205B
:101BC0004C61737420557064617465643A20002020
:101BD000312E302E322B004D61726C696E00205315
:101BE0006F66747761726520526573657400205763
:101BF00061746368646F6720526573657400204286
:101C0000726F776E206F7574205265736574002053
:101C100045787465726E616C20526573657400500E
:101C20006F7765725570007374617274002200657D
:101C30006E717565696E672022002200656E717590
:101C400065696E67202200FF01FF0000204100004F
:101C50002041000000400000164400C019440080EC
:101C600016440000000000C01944000000000000FD
:101C7000164400C019440080164400000000000013
:101C80000000000000006563686F3A004572726FE3
:101C9000723A007C3C3E5E2B3D3F2F5B5D3B2C2A25
:101CA000225C004D383420582059205A20450043EA
:101CB000616E6E6F7420656E7465722073756264F8
:101CC00069723A20004D3234004D323320257300C2
:101CD0006175746F25692E67006572726F72207767
:101CE000726974696E6720746F2066696C65004E56
:101CF0006F74205344207072696E74696E67002F90
:101D0000005344207072696E74696E672062797442
:101D10006520002E0044656C6574696F6E206661F5
:101D2000696C65642C2046696C653A200046696CD4
:101D3000652064656C657465643A002E006F70659B
:101D40006E206661696C65642C2046696C653A207A
:101D50000057726974696E6720746F2066696C65DC
:101D60003A20002E006F70656E206661696C6564B4
:101D70002C2046696C653A20002E006F70656E203D
:101D80006661696C65642C2046696C653A20004682
:101D9000696C652073656C656374656400205369C4
:101DA0007A653A200046696C65206F70656E6564DF
:101DB0003A20002E006F70656E206661696C656464
:101DC0002C2046696C653A20004E6F77206672655C
:101DD00073682066696C653A20004E6F7720646FE7
:101DE000696E672066696C653A20002220706F7307
:101DF000002220706172656E743A2200535542527F
:101E00004F5554494E452043414C4C2074617267F4
:101E100065743A2200747279696E6720746F20636A
:101E2000616C6C207375622D67636F6465206669F1
:101E30006C6573207769746820746F6F206D616EB4
:101E400079206C6576656C732E204D4158206C6549
:101E500076656C2069733A00534420636172642094
:101E60006F6B006F70656E526F6F74206661696C86
:101E7000656400766F6C756D652E696E6974206699
:101E800061696C656400534420696E697420666101
:101E9000696C0020746F6F206C6F6E6720657874BA
:101EA000727573696F6E2070726576656E746564A5
:101EB0000020636F6C6420657874727573696F6E4F
:101EC0002070726576656E74656400656E64737407
:101ED0006F7073206869743A205A00205A3A00657E
:101EE0006E6473746F7073206869743A20590020AF
:101EF000593A00656E6473746F7073206869743A40
:101F000020580020583A00656E6473746F70732017
:101F10006869743A200024F4D43050C38E20C2A2E1
:101F20004017828B7011127A910D816CD90AA861C9
:101F3000E108C7586607615143061E4B5D05C14560
:101F4000A7041A411104093D980371393103403641
:101F5000DB0265339102D4305402802E1D02632CC3
:101F6000EE01752AC501B028A001102781018F2537
:101F700064012B244B01E0223401AC211F018D2090
:101F80000D01801FFC00841EED00971DDF00B81CB2
:101F9000D200E61BC600201BBC00641AB200B219B6
:101FA000A8000A19A0006A189900D11791004017DB
:101FB0008B00B516840031167E00B31579003A15F2
:101FC0007300C7146F0058146A00EE13660088137C
:101FD000630025135E00C7125B006C1257001512D8
:101FE0005400C111510070114F0021114B00D61047
:101FF00049008D1047004610440002104200C00FF7
:102000004000800F3E00420F3C00060F3B00CB0E0D
:102010003800930E37005C0E3500270E3400F30DA8
:102020003200C10D3100900D3000600D2E00320DD8
:102030002D00050D2C00D90C2B00AE0C2900850CB1
:1020400029005C0C2700350C27000E0C2600E80B3D
:102050002400C40B2400A00B23007D0B23005A0B8B
:102060002100390B2100180B2000F80A1F00D90AA3
:102070001E00BB0A1E009D0A1D00800A1D00630A87
:102080001C00470A1B002C0A1B00110A1A00F70942
:102090001A00DD091900C4091900AB0919009209D9
:1020A00017007B091800630917004C091600360950
:1020B0001600200916000A091500F5081500E008A9
:1020C0001400CC081400B8081400A40814009008E8
:1020D00013007D0812006B08130058081200460810
:1020E0001200340811002308110012081100010821
:1020F0001100F0071000E0071000D0071000C00723
:102100001000B0070F00A107100091070E00830711
:102110000F0074070F0065070E0057070E004907F0
:102120000E003B070D002E070E0020070D001307C1
:102130000D0006070D00F9060C00ED060D00E00687
:102140000C00D4060C00C8060C00BC060C00B0063F
:102150000C00A4060B0099060C008D060B008206ED
:102160000B0077060B006C060B0061060A00570691
:102170000B004C060A0042060A0038060A002E062A
:102180000A0024060A001A060A00100609000706BB
:102190000A00FD050900F4050900EB050900E20548
:1021A0000900D9050900D0050900C7050900BE05C9
:1021B0000900B5050800AD050800A50509009C0546
:1021C0000800940508008C050800840508007C05BB
:1021D0000800740508006C050700650508005D052A
:1021E0000700560508004E05070047050700400593
:1021F000080038050700310507002A0507002305F8
:1022000007001C050600160507000F050700080556
:10221000060002050700FB040600F5040700EE04B3
:102220000600E8040600E2040700DB040600D5040B
:102230000600CF040600C9040600C3040600BD045E
:102240000600B7040600B1040500AC040600A604AD
:102250000600A00405009B040600950405009004F8
:1022600006008A04050085040500800406007A043F
:10227000050075040500700405006B040500660484
:102280000500610405005C040500570405005204C4
:1022900005004D04050048040500430405003E0404
:1022A00004003A04050035040500300404002C0441
:1022B000050027040400230405001E0404001A047A
:1022C000040016040500110404000D0404000904B0
:1022D00005000404040000040400FC030400F803E7
:1022E0000400F4030400F0030400EC030400E8031A
:1022F0000400E4030400E0030400DC030400D8034A
:102300000400D4030400D0030400CC030400C80379
:102310000300C503030024F404D9201BC40C5C0E85
:102320009804C4095F0265077101F405F900FB0414
:10233000B30048048700C103690058035500030334
:102340004500BE023A008402310053022A002902ED
:10235000250004022000E4011C00C8011900AF019F
:10236000170098011400840113007101100061012D
:10237000100051010E0043010D0036010B002B012E
:102380000B0020010B00150109000C0109000301DD
:102390000800FB000800F3000800EB000700E40061
:1023A0000600DE000600D8000600D2000600CC00C1
:1023B0000500C7000500C2000500BD000400B9000B
:1023C0000400B5000400B1000400AD000400A90041
:1023D0000400A5000300A20003009F0004009B006E
:1023E0000300980003009500020093000300900092
:1023F00003008D0002008B000300880002008600AD
:10240000020084000300810002007F0002007D00C2
:1024100002007B00020079000200770001007600D4
:1024200002007400020072000100710002006F00DF
:1024300002006D0001006C0002006A0001006900EA
:1024400002006700010066000100650001006400F1
:1024500002006200010061000100600001005F00F5
:1024600002005D0001005C0001005B0001005A00F9
:1024700001005900010058000100570001005600FA
:1024800001005500010054000100530000005300FA
:1024900001005200010051000100500001004F00F6
:1024A00001004E0000004E0001004D0001004C00F4
:1024B00001004B0000004B0001004A0001004900F0
:1024C00001004800000048000100470001004600EC
:1024D00000004600010045000000450001004400E6
:1024E00001004300000043000100420000004200E0
:1024F00001004100000041000100400001003F00D8
:1025000000003F0001003E0000003E0001003D00D1
:1025100000003D0001003C0000003C0000003C00C9
:1025200001003B0000003B0001003A0000003A00BF
:1025300001003900000039000100380000003800B7
:1025400000003800010037000000370001003600AD
:1025500000003600000036000100350000003500A4
:102560000000350001003400000034000000340099
:10257000010033000000330000003300010032008E
:102580000000320000003200010031000000310084
:102590000000310001003000000030000000300079
:1025A00001002F0000002F0000002F0000002F006E
:1025B00001002E0000002E0000002E0001002D0062
:1025C00000002D0000002D0000002D0001002C0057
:1025D00000002C0000002C0000002C0001002B004B
:1025E00000002B0000002B0000002B0001002A003F
:1025F00000002A0000002A0000002A000100290033
:102600000000290000002900000029000000290026
:102610000100280000002800000028000000280019
:10262000000028000100270000002700000027000C
:1026300000002700000027000100260000002600FF
:1026400000002600000026000000260001002500F2
:1026500000002500000025000000250000002500E6
:1026600000002500010024000000240000002400D8
:1026700000002400000024000100230000002300CB
:1026800000002300000023000000230000002300BE
:1026900000002300010022000000220000002200B0
:1026A00000002200000022000000220001002100A2
:1026B0000000210000002100000021000000210096
:1026C0000000210000002100010020000000200087
:1026D000000020000000200000002000000020007A
:1026E000000020000000200001001F0000001F006B
:1026F00000001F0000001F0000001F0000001F005E
:1027000000001F0001001E0000001E0000001E004F
:1027100000001E0000004572723A204D4158544599
:102720004D50204245440054656D7065726174756A
:1027300072652068656174656420626564207377E2
:10274000697463686564206F66662E204D41585435
:10275000454D502074726967676572656420212158
:10276000004572723A204D494E54454D50003A2072
:1027700045787472756465722073776974636865EF
:1027800064206F66662E204D494E54454D5020748E
:1027900072696767657265642021004572723A202C
:1027A0004D415854454D50003A2045787472756437
:1027B0006572207377697463686564206F66662E3E
:1027C000204D415854454D502074726967676572B9
:1027D0006564202100544845524D414C2052554ECD
:1027E000415741590062656400546865726D616CBF
:1027F0002052756E617761792C2073797374656DE1
:102800002073746F7070656421204865617465720F
:102810005F49443A200048656174696E67206661CB
:10282000696C656400202D20496E76616C696420B6
:102830006578747275646572206E756D626572205C
:102840002100504944204175746F74756E6520668F
:10285000696E6973686564212050757420746865B9
:10286000206C617374204B702C204B6920616E6466
:10287000204B6420636F6E7374616E747320667294
:102880006F6D2061626F766520696E746F20436F93
:102890006E66696775726174696F6E2E6800504963
:1028A00044204175746F74756E65206661696C654E
:1028B00064212074696D656F75740020403A006F63
:1028C0006B20543A006F6B20423A0050494420413B
:1028D00075746F74756E65206661696C656421201E
:1028E00054656D706572617475726520746F6F20C8
:1028F0006869676800204B643A2000204B693A20E1
:1029000000204B703A200020436C61737369632090
:1029100050494420002054753A2000204B753A203D
:1029200000206D61783A2000206D696E3A20002009
:10293000643A200020626961733A2000B02000B040
:10294000200059002D2D3A2D2D00466C6F77203137
:1029500000466C6F77203100466C6F772030004660
:102960006C6F77203000466C6F7700466C6F770095
:1029700046616E2073706565640046616E207370F9
:102980006565640042656400426564004E6F7A7A52
:102990006C6532004E6F7A7A6C6532004E6F7A7ACF
:1029A0006C65004E6F7A7A6C6500537065656400E3
:1029B0005370656564004D61696E005072656865AD
:1029C000617420504C412042656400507265686516
:1029D000617420504C4120416C6C005072656865F8
:1029E000617420504C4120320050726568656174FA
:1029F00020504C412031005072657061726500506A
:102A000072656865617420414253204265640050DC
:102A10007265686561742041425320416C6C0050BE
:102A200072656865617420414253203200507265BE
:102A300068656174204142532031005072657061B5
:102A4000726500580059005A0045787472756465C3
:102A500072004578747275646572004D6F766520FA
:102A60005A004D6F76652059004D6F7665205800ED
:102A70004D6F76652061786973004D6F7665203003
:102A80002E316D6D004D6F766520316D6D004D6F8F
:102A900076652031306D6D00507265706172650031
:102AA0004D6F76652061786973004D38300053773B
:102AB0006974636820706F776572206F6E004D389F
:102AC000310053776974636820706F776572206F87
:102AD000666600436F6F6C646F776E005072656856
:102AE00065617420414253005072656865617420CD
:102AF000504C4100473238205A30004175746F20E5
:102B0000486F6D65205A00473238205830205930C0
:102B1000004175746F20486F6D6520582C20590056
:102B2000473238004175746F20686F6D65004D380D
:102B3000340044697361626C6520737465707065FC
:102B40007273004D61696E0053746F7265206D651C
:102B50006D6F72790042656400426564004E6F7A61
:102B60007A6C65004E6F7A7A6C650046616E2073F0
:102B7000706565640046616E20737065656400541D
:102B8000656D70657261747572650053746F7265FE
:102B9000206D656D6F727900426564004265640066
:102BA0004E6F7A7A6C65004E6F7A7A6C650046617A
:102BB0006E2073706565640046616E207370656594
:102BC000640054656D706572617475726500507251
:102BD00065686561742041425320636F6E660050E2
:102BE00072656865617420504C4120636F6E6600A9
:102BF0005049442D43005049442D43005049442D31
:102C000044005049442D44005049442D4900504946
:102C1000442D49005049442D50005049442D500046
:102C20002002204661637400200220466163740024
:102C30002002204D6178002002204D6178002002A2
:102C4000204D696E002002204D696E004F666600BF
:102C50004F6E20004F6666004F6E20004175746F06
:102C600074656D700046616E207370656564004622
:102C7000616E20737065656400426564004265643E
:102C8000004E6F7A7A6C6532004E6F7A7A6C6532DC
:102C9000004E6F7A7A6C65004E6F7A7A6C650043ED
:102CA0006F6E74726F6C004573746570732F6D6D09
:102CB000004573746570732F6D6D005A7374657081
:102CC000732F6D6D005A73746570732F6D6D00599D
:102CD00073746570732F6D6D005973746570732F05
:102CE0006D6D005873746570732F6D6D005873743B
:102CF0006570732F6D6D00412D7265747261637420
:102D000000412D7265747261637400416D617820B9
:102D10006500416D6178206500416D6178207A0021
:102D2000416D6178207A00416D6178207900416DB4
:102D30006178207900416D6178207800416D61787B
:102D40002078005654726176206D696E0056547278
:102D50006176206D696E00566D696E00566D696E04
:102D600000566D6178206500566D617820650056CB
:102D70006D6178207A00566D6178207A00566D6119
:102D800078207900566D6178207900566D61782041
:102D90007800566D617820780056652D6A65726BF3
:102DA0000056652D6A65726B00567A2D6A65726BE6
:102DB00000567A2D6A65726B005678792D6A6572B5
:102DC0006B005678792D6A65726B00416363656CA0
:102DD00000416363656C00436F6E74726F6C0046F4
:102DE000696C2E204469612E20320046696C2E20C9
:102DF0004469612E20320046696C2E204469612EA0
:102E000020310046696C2E204469612E2031004F2C
:102E10006666004F6E20004F6666004F6E200045CC
:102E200020696E206D6D3300436F6E74726F6C009D
:102E30004C434420636F6E74726173740052657307
:102E4000746F7265206661696C73616665004C6FB2
:102E50006164206D656D6F72790053746F726520C7
:102E60006D656D6F7279004C434420636F6E7472B0
:102E70006173740046696C616D656E74004D6F74AA
:102E8000696F6E0054656D7065726174757265006E
:102E90004D61696E004D383420582059205A204524
:102EA000004D3234004D323320257300F92E2E00B0
:102EB000F852656672657368004D61696E004D3247
:102EC0003100496E69742E2053442063617264009E
:102ED0004E6F2053442063617264004D32310043D1
:102EE00068616E67652053442063617264005072AC
:102EF000696E742066726F6D2053440053746F7056
:102F0000207072696E7400526573756D6520707201
:102F1000696E74005061757365207072696E74001B
:102F2000436F6E74726F6C005072657061726500F1
:102F300054756E6500496E666F2073637265656EC9
:102F40000000060900FE070199032B20FFFE08FE82
:102F500007FE00000006000001070706020080804F
:102F60008080800080030303060104A0A0A0050761
:102F7000070600005050F850F850500507070600AB
:102F8000002070A07028702005070706000048A8E0
:102F9000502050A89005070706000040A0A040A8B8
:102FA000906801030306020480808003070706017E
:102FB00000204080808040200307070601008040F9
:102FC00020202040800505050600018850F8508823
:102FD0000505050600012020F82020030303060153
:102FE000FF604080050101060003F80303030601AA
:102FF000FF40E04005070706000008081020408059
:1030000080050707060000205088888850200507A3
:10301000070600002060A0202020F8050707060012
:1030200000708808304080F8050707060000F8089F
:10303000103008887005070706000010305090F81F
:103040001010050707060000F880B0C80888700552
:103050000707060000304080B0C8887005070706E3
:103060000000F80810102040400507070600007017
:10307000888870888870050707060000708898683F
:103080000810600307070601FF40E0400040E040F1
:103090000307070601FF40E0400060408004070787
:1030A00006010010204080402010050303060002A6
:1030B000F800F80407070601008040201020408037
:1030C000050707060000708810202000200507076C
:1030D000060000708898A8B08070050707060000F9
:1030E00020508888F88888050707060000F04848BF
:1030F000704848F0050707060000708880808088C7
:1031000070050707060000F04848484848F00507E2
:1031100007060000F88080F08080F80507070600A9
:1031200000F88080F0808080050707060000708826
:103130008080988870050707060000888888F888CE
:103140008888030707060100E04040404040E00552
:1031500007070600003810101010906005070706DA
:1031600000008890A0C0A090880507070600008096
:103170008080808080F80507070600008888D8A82E
:103180008888880507070600008888C8A898888866
:10319000050707060000708888888888700507077B
:1031A000060000F08888F08080800508080600FF8F
:1031B0007088888888A87008050707060000F088CE
:1031C00088F0A090880507070600007088807008C6
:1031D0008870050707060000F82020202020200521
:1031E0000707060000888888888888700507070612
:1031F0000000888888505050200507070600008886
:103200008888A8A8D8880507070600008888502065
:103210005088880507070600008888502020202055
:10322000050707060000F80810204080F80307078C
:10323000060100E08080808080E00507070600002E
:1032400080804020100808030707060100E02020C6
:10325000202020E00503030600042050880501011A
:103260000600FFF802020206020680400505050678
:10327000000070087888780507070600008080B095
:10328000C888C8B0050505060000708880887005EC
:10329000070706000008086898889868050505066D
:1032A00000007088F880700507070600003048406D
:1032B000F04040400507070600FE788888780888B7
:1032C000700507070600008080B0C888888803075B
:1032D000070601004000C0404040E0040909060123
:1032E000FE100030101010909060050707060000D7
:1032F00080808890E09088030707060100C0404066
:10330000404040E0050505060000D0A8A8A88805B3
:103310000505060000B0C888888805050506000078
:1033200070888888700507070600FEB0C888C8B096
:1033300080800507070600FE6898889868080805D9
:103340000505060000B0C880808005050506000060
:1033500070807008F00507070600004040F040400C
:103360004830050505060000888888986805050529
:103370000600008888505020050505060000888852
:10338000A8A85005050506000088502050880507AC
:10339000070600FE888898680888700505050600FD
:1033A00000F8102040F8040707060100304020C054
:1033B00020403001070706020080808080808080E6
:1033C000040707060100C02040304020C005030369
:1033D00006000448A8900000000100000000000161
:1033E00000000000000100000000000100000000DB
:1033F00000010000000000010000000000010000CA
:1034000000000001000000000001000000000001B9
:1034100000000000000100000000000100000000AA
:103420000001000000000001000000000001000099
:103430000000000100000000000100000000000189
:10344000000000000001000000000001000000007A
:103450000001000000000001000000000001000069
:103460000000000100000000000100000000000159
:10347000000000000001000000000001000000004A
:103480000001000000000001000000000001000039
:103490000000000100000000000100000000000624
:1034A0000000010707060200800080808080800500
:1034B00007070600FF2078A0A0A0782005070706D0
:1034C0000000304840E04048B0050505060000888F
:1034D000705070880508080600FF88885020F82082
:1034E0002020010707060200808080008080800580
:1034F00008080600FF7080E090483808700301015A
:10350000060107A00507070600007088A8C8A8885C
:10351000700406060601017090B05000F006050523
:103520000600002448904824040202060102F0101C
:10353000040101060103F00507070600007088E892
:10354000C8C88870050101060007F80303030601D7
:103550000440A0400506060600002020F82020F8C0
:1035600004050506010360902040F00405050601EE
:1035700003E0106010E00202020602064080050629
:10358000060600FF888888C8B08005070706000087
:1035900078E8E86828282801010106020380020271
:1035A000020602FE408003050506010340C04040BC
:1035B000E00406060601016090906000F006050533
:1035C00006000090482448900609090600FF40C004
:1035D0004040E40C143C040609090600FF40C040CA
:1035E00040E81404081C0509090600FFC02040201B
:1035F000C81828780805070706000020002020408A
:1036000088700508080600004020708888F88888BF
:103610000508080600001020708888F888880508CA
:10362000080600002050708888F888880508080679
:10363000000048B0708888F88888050808060000EF
:103640005000708888F88888050808060000205017
:10365000708888F888880607070600003C50909C10
:10366000F0909C0509090600FE70888080808870B3
:10367000204005080806000040F88080F08080F8AF
:1036800005080806000010F88080F08080F8050822
:103690000806000020F88080F08080F80508080601
:1036A000000050F88080F08080F8030808060100D0
:1036B0008040E040404040E0030808060100204010
:1036C000E040404040E003080806010040A0E04020
:1036D000404040E0030808060100A000E0404040F0
:1036E00040E0050707060000F04848E84848F005B4
:1036F0000808060000285088C8A898888805080887
:103700000600004020708888888870050808060038
:10371000001020708888888870050808060000203E
:103720005070888888887005080806000028507046
:10373000888888887005080806000050007088880E
:103740008888700505050600008850205088050708
:1037500007060000709898A8C8C8700508080600F9
:1037600000402088888888887005080806000010B6
:103770002088888888887005080806000020500086
:1037800088888888700508080600005000888888A6
:1037900088887005080806000010208888502020BE
:1037A0002005070706000080F088F080808005076C
:1037B00007060000708890A09088B00508080600F1
:1037C000004020007008788878050808060000107E
:1037D000200070087888780508080600002050004E
:1037E00070087888780508080600002850007008DE
:1037F00078887805070706000050007008788878F8
:103800000508080600002050207008788878060512
:103810000506000078147C907C0507070600FE7002
:10382000888088702040050808060000402000704D
:1038300088F880700508080600001020007088F8DD
:1038400080700508080600002050007088F880701D
:1038500005070706000050007088F880700308080C
:10386000060100804000C0404040E0030808060117
:1038700000408000C0404040E003080806010040CE
:10388000A000C0404040E0060A0A0600FEA4A800CE
:10389000FC8480808084FC060A0A0600FE549400A2
:1038A000FC8404040484FC05080806000028500079
:1038B000B0C8888888050808060000402000708885
:1038C000888870040A0A0602FE304080909090902A
:1038D000909090040A0A0600FEC0201090909090EC
:1038E000909090060707060001448C8C8480403C31
:1038F00006070706000188C4C4840408F00505050E
:103900000600012000F8002005080806000040F02D
:10391000C88888987810050808060000E0F88888AC
:10392000888888F80505050600012030F830200554
:1039300008080600002070F820202020E005090972
:103940000600FF2070A8A8B888885020050909063D
:1039500000FFE080C0B0A8A83028280509090600AB
:10396000FFF8A88888888888A8F8050A0A0600FE53
:10397000205050505088A8A8887000060900FE0604
:10398000018902FE20FFFE07FE06FE000000060081
:103990000701060606020080808080008003030382
:1039A000060103A0A0A00507070600FF5050F8502D
:1039B000F850500509090600FE2070A8A07028A83C
:1039C00070200608080600FF40A848102048540848
:1039D0000507070600FF6090906098906801030358
:1039E0000602038080800207070602FF4080808075
:1039F0008080400207070602FF8040404040408030
:103A00000505050600008850F850880505050600E4
:103A1000002020F820200204040602FEC04040805E
:103A2000050101060002F8020202060200C0C004FD
:103A300006060601001010204080800406060601DC
:103A40000060909090906003060606010040C04020
:103A50004040E00406060601006090102040F0049B
:103A60000606060100F020601010E00506060600BC
:103A70000010305090F810040606060100F080E0B7
:103A80001010E00406060601006080E090906004DB
:103A90000606060100F0101020404004060606014C
:103AA00000609060909060040606060100609090AF
:103AB000701060020505060200C0C000C0C0020709
:103AC000070602FEC0C000C0404080050505060094
:103AD000001860806018050303060001F800F8056F
:103AE0000505060000C0300830C0040707060100C5
:103AF000609010604000400506060600007090A827
:103B0000B08070050606060000205088F8888805F9
:103B10000606060000F088F08888F0040606060114
:103B200000609080809060040606060100E090909E
:103B30009090E0040606060100F080E08080F0042A
:103B40000606060100F080E080808004060606017B
:103B500000609080B090600406060601009090F02E
:103B6000909090030606060100E040404040E005CA
:103B700006060600003810101090600406060601C4
:103B80000090A0C0A09090040606060100808080EE
:103B90008080F005060606000088D8A8A88888045A
:103BA000060606010090D0B090909005060606002B
:103BB00000708888888870040606060100E09090EE
:103BC000E080800407070601FF609090D0B060108D
:103BD000040606060100E09090E0909004060606B8
:103BE0000100609040209060050606060000F82065
:103BF00020202020040606060100909090909060FE
:103C0000040606060100909090F060600506060626
:103C100000008888A8A8D8880506060600008850F5
:103C200020205088050606060000888850202020A5
:103C3000040606060100F010204080F00306060688
:103C40000100E080808080E004060606010080809C
:103C500040201010030606060100E020202020E08E
:103C60000503030600032050880501010600FEF845
:103C7000020202060204804004040406010070905F
:103C800090700406060601008080E09090E0040435
:103C90000406010070808070040606060100101002
:103CA0007090907004040406010060B0C0700406B7
:103CB00006060100205040E040400406060601FED2
:103CC0006090907010600406060601008080E0900D
:103CD00090900306060601004000C04040E0030843
:103CE000080601FE200060202020A04004060606F1
:103CF00001008080A0C0A090030606060100C0401D
:103D0000404040E0050404060000D0A8A888040450
:103D100004060100E0909090040404060100609005
:103D200090600406060601FEE09090E080800406A4
:103D3000060601FE70909070101004040406010045
:103D4000A0D0808004040406010070C030E00406A6
:103D5000060601004040E040502004040406010033
:103D60009090907004040406010090906060050437
:103D70000406000088A8A85004040406010090600E
:103D800060900406060601FE909090709060040416
:103D900004060100F02040F0030707060100204060
:103DA00040804040200107070602FF80808080801D
:103DB00080800307070601008040402040408004C7
:103DC000020206010350A0FFFFFFFFFFFFFFFFFFFE
:103DD000FFFFFFFFFFFFFFFFFFFFFFFFFFFFFFFFF3
:103DE000FFFFFFFFFFFFFFFF0000000600070106C7
:103DF000060602008000808080800406060601FF1F
:103E00002070A0A070200507070600FF304840F092
:103E10004040F8050505060000A8508850A8050692
:103E2000060600008850F820F8200107070602FF68
:103E3000808080008080800407070601FF7080601A
:103E4000906010E0030101060105A00607070600C7
:103E500000788494A494847803050506010160A089
:103E60006000E00505050600002850A05028040366
:103E700003060100F01010040101060102F006071C
:103E8000070600007884B4A4A48478040101060124
:103E900005F00403030601026090600507070600B1
:103EA000FF2020F8202000F803050506010140A0AE
:103EB0002040E0030505060101C0204020C00202A9
:103EC0000206020440800405050601FF9090B0D070
:103ED0008005060606000078E8E868282801010148
:103EE000060202800202020602FE40800305050669
:103EF000010140C04040E003050506010140A0402B
:103F000000E0050505060000A0502850A00508089F
:103F10000600FF40C04050703078100508080600C9
:103F2000FF40C04050680810380508080600FFC070
:103F3000204030F0307810040707060100200020F0
:103F400060809060050707060000402020507088C0
:103F50008805070706000010202050708888050794
:103F600007060000205020507088880507070600CB
:103F70000028502050708888050707060000500070
:103F800020507088880507070600002050205070D8
:103F9000888805060606000078A0F0A0A0B80408EE
:103FA000080601FE609080809060204004070706AC
:103FB00001004020F080E080F004070706010020A7
:103FC00040F080E080F00407070601002050F080F8
:103FD000E080F00407070601005000F080E080F068
:103FE0000307070601008040E0404040E003070768
:103FF0000601002040E0404040E0030707060100C2
:1040000040A0E0404040E0030707060100A000E0B8
:10401000404040E00506060600007048E848487049
:1040200004070706010050A090D0B0909004070745
:104030000601004020609090906004070706010090
:1040400020406090909060040707060100205060B7
:104050009090906004070706010050A06090909037
:10406000600407070601005000609090906005050D
:104070000506000088502050880408080601FF103B
:1040800070B0B0D0D0E08004070706010040209057
:104090009090906004070706010020409090909057
:1040A000600407070601002050909090906004077C
:1040B00007060100500090909090600507070600E9
:1040C000001020885020202004060606010080E011
:1040D0009090E0800406060601006090A0A090A0E9
:1040E0000407070601004020007090907004070745
:1040F0000601002040007090907004070706010040
:104100002050007090907004070706010050A00036
:104110007090907004060606010050007090907038
:1041200004070706010020502070909070050404D9
:1041300006000070A8B0780406060601FE708080B4
:1041400070204004070706010040200060B0C070E6
:1041500004070706010020400060B0C07004070794
:1041600006010020500060B0C07004060606010081
:10417000500060B0C070030707060100804000C017
:104180004040E0030707060100204000C04040E037
:1041900003070706010040A000C04040E0030606F8
:1041A000060100A000C04040E004070706010030FF
:1041B00060107090906004070706010050A000E0B6
:1041C00090909004070706010040200060909060E6
:1041D0000407070601002040006090906004070774
:1041E000060100205000609090600407070601005F
:1041F00050A0006090906004060606010050006028
:104200009090600505050600002000F800200404D9
:104210000406010070B0D0E004070706010040204A
:1042200000909090700407070601002040009090D5
:1042300090700407070601002050009090907004D1
:1042400006060601005000909090700409090601CE
:10425000FE2040009090907090600408080601FED7
:104260008080E09090E080800408080601FE500005
:10427000909090709060000000000000000000002E
:1042800000007FFFE00000000000000000000000D0
:10429000007000E0000000000000000000000000CE
:1042A00061F8600000000000000000000000004114
:1042B000F82000000000000000000000000040F0B6
:1042C000200000000000000000000000004060200E
:1042D0000000000000000000000000005801A07F66
:1042E00080003FC0000000004104005C63A0FBC0F0
:1042F0000079E0000000002082005EF7A0F3C0001B
:1043000076E0000000002082005EF7A0EBC0007E97
:10431000E0000000004104005C63A07B80003DC021
:10432000000000008208005801A07B80003BC00014
:10433000000001041000406020FBC00077E0000096
:10434000000104100040F020FBC00070E0000000FD
:104350000082080041F820FFC0007FE0000000005C
:1043600041040061F8603F00001F80000000000071
:1043700000007000E01E00000F0000000001FFFFC1
:10438000807FFFE00C0000060000000001FFFF80BE
:104390000000000000000000000000000000007F9E
:1043A000FFE00000000000000000000000007000BE
:1043B000E0000000000000000000000000630C604E
:1043C000000000000000000000000000470E200078
:1043D00000000000000000000000004F0F2000005F
:1043E000000000000000000000005F0FA0000000BF
:1043F0000000000000000000005E07A07F80003F7A
:10440000C000000000410400406020FBC00079E0D3
:104410000000000020820040F020F3C00076E000A1
:1044200000000020820040F020EBC0007EE0000091
:1044300000004104004060207B80003DC00000007F
:10444000008208005E07A07B80003BC000000001E6
:104450000410005F0FA0FBC00077E0000000010423
:1044600010004F0F20FBC00070E000000000820829
:1044700000470E20FFC0007FE00000000041040064
:10448000630C603F00001F8000000000000000700F
:1044900000E01E00000F0000000001FFFF807FFF12
:1044A000E00C0000060000000001FFFF800000009B
:1044B0000000000C000000000000001E00000000D2
:1044C0000000003F80000000000000FFE00000004E
:1044D000000003FFF800000000000FFFFE000000D6
:1044E00000003FF3FF00000000007FE0FFC000007D
:1044F0000001FF807FE000000007FE001FF80000C1
:10450000001FFC0007FE0000007FF00001FF80009C
:1045100000FFC000007FE00003FF000C003FF00040
:1045200007FE001E000FFC001FF8007F8003FF0045
:104530007FE001FFE001FF807F8007FFF8007F80C0
:104540007FE00FFFFE00FF807FF03FFFFF03FF8053
:104550007FFC7FFFFFC7FF807FFFFFFFFFFFFF8024
:104560007CFFFFFFFFFFEF807C3FFFFFFFFF8F809F
:104570007C0FFFFFFFFE0F807C07FFFFFFFC0F801B
:104580007C07FFFFFFFC0F807C07FFFFFFFC0F8015
:104590007C07FFFFFFFC0F807C07FFFC61FC0F80A6
:1045A0007C07FFFBAEFC0F807C0767FFAF7C0F80B2
:1045B0007C079BFF6F7C0F807C07DE6C6F7C0F801D
:1045C0007C07DDB7AF7C0F807C07DC3BAF7C0F80C6
:1045D0007C07BDEB6EFC0F807C07BE1CE1FC0F80EE
:1045E0007C07FFFFFFFC0F807C07FFFFFFFC0F80B5
:1045F0007C07FFFFFFFC0F807C07FFFFFFF80F80A9
:104600007C01FFFFFFE00F807C007FFFFFC00F8079
:104610007C003FFFFF000F807E000FFFFE000F8039
:104620007F8003FFF8003F807FE000FFE000FF8015
:104630007FF8003F8003FF800FFC001F000FFE008B
:1046400007FF001F001FFC0001FF801F007FF0001C
:1046500000FFE01F01FFC000003FF81F07FF000040
:10466000000FFE1F1FFC00000003FF9F3FF0000033
:104670000001FFDFFFE0000000007FFFFF8000007F
:1046800000001FFFFF000000000007FFFC0000000B
:10469000000001FFF0000000000000FFC00000006B
:1046A0000000003F800000000000000E000000003D
:1046B00000000000000000000000000000000000FA
:1046C00000000000000000000000000000000000EA
:1046D00000000000000000000000000000000000DA
:1046E00000000000000000000000000000000000CA
:1046F0000A0B02090C0D0E0807030401000000005C
:1047000000000000000000000000000000000000A9
:104710000000000000000000000012111000000066
:104720000000000000000000000000000000000089
:104730000000000001021020200808102040102076
:104740004080020102010804020101020408102055
:104750004080804020100804020180040201804053
:1047600020100804020108040201010204081020BC
:10477000408001020408102040800505050507055A
:1047800008080808020202020A0A080804040404CD
:1047900001010101010101010303030303030303F9
:1047A000040707070C0C0C0C0C0C0C0C0202020288
:1047B00006060606060606060B0B0B0B0B0B0B0B71
:1047C000000020002300260029002C002F003200CA
:1047D000000100000301060109010000220025007C
:1047E00028002B002E0031003400020100000501DA
:1047F00008010B0100002100240027002A002D00E1
:104800003000330001010000040107010A01024EDB
:10481000414E494E495459494E46CDCCCC3D0AD71C
:10482000233C17B7D13877CC2B329595E6241FB1AE
:104830004F0A000020410000C84200401C4620BC36
:10484000BE4CCA1B0E5AAEC59D74F15EFDDCD6DDB2
:10485000F55E11241FBECFEFD1E2DEBFCDBF00E079
:104860000CBF15E0A0E0B2E0E6E4F3EE01E00BBF20
:1048700002C007900D92AE30B107D9F726E1AEE045
:10488000B5E001C01D92AE32B207E1F718E4C0E511
:10489000D8E400E006C022970109FE010BBF0E9488
:1048A0003EEBCA34D10780E00807A9F70E942BE647
:1048B0000C9492F10C940000AF92BF92CF92DF92D1
:1048C000EF92FF920F931F93CF93DF931F92CDB779
:1048D000DEB77C01362FC42ED22E5801DD2079F0B0
:1048E000F501049120E04C2D632FC701398316D6C2
:1048F000FFEFAF1ABF0ADA943981385FEFCF0F901C
:10490000DF91CF911F910F91FF90EF90DF90CF90AB
:10491000BF90AF9008958F929F92AF92BF92CF9227
:10492000DF92EF92FF920F931F93CF93DF93EC01EF
:10493000962EB42EA22ED02E220F220F220F1FD081
:10494000882381F08B2C8D0CCA2CD12CB81451F0FB
:1049500087012A2D4B2D692DCE01AEDFEC0CFD1CFD
:10496000B394F4CFDF91CF911F910F91FF90EF900F
:10497000DF90CF90BF90AF909F908F9008950F934E
:10498000FC010150040F84A996A9941718F0081788
:1049900028F402C0081750F0041740F42150260FE5
:1049A00083A995A9961720F4281720F480E007C062
:1049B000281720F481E0261710F0F8CF81E00F913E
:1049C0000895DB011496ED91FC91159720E030E0FD
:1049D00061E01994DB011496ED91FC91159720E0AC
:1049E00030E063E01994DB011496ED91FC9115978A
:1049F00020E030E040E064E01994DB011496ED9192
:104A0000FC91159720E030E041E064E01994DB016F
:104A10001496ED91FC91159720E030E062E0199436
:104A2000DB011496ED91FC91159720E030E065E0F4
:104A30001994DB011496ED91FC91159766E0199499
:104A4000AF92BF92CF92DF92EF92FF920F931F939C
:104A5000CF93DF931F92CDB7DEB75C018B017A0154
:104A600080E0F7014491811108C04F3FA1F1B801E6
:104A7000C501D6DF811128C033C04F3FC1F34E3F7F
:104A800089F1403F08F5403E28F04F70B801C5015C
:104A9000BEDF1AC0403D28F04F70B801C5019ADF53
:104AA00013C0403C98F0B801C50149839CDF49819F
:104AB0004295407F4E5FC42ED12CC601C7D0B801AD
:104AC000C5019BDFC601C2D080E006C047FDFCCF18
:104AD000842F90E0F8CF81E0FFEFEF1AFF0AC1CFFB
:104AE00080E001C081E00F90DF91CF911F910F9185
:104AF000FF90EF90DF90CF90BF90AF900895860F1A
:104B0000911DFC0183A18F3F19F0642F0C94F4E1F7
:104B10000895EF92FF920F931F93CF93DF937C0141
:104B2000C0E0D0E087010C0F1D1FF80183A18F3F6B
:104B300041F061E00E94BBE161E0F80183A10E94C5
:104B4000F4E12196CD30D10569F7DF91CF911F9126
:104B50000F91FF90EF9008958EBD0DB407FEFDCF2D
:104B60008EB50895CF92DF92EF92FF920F931F932D
:104B7000CF93DF931F92CDB7DEB76C017901062F7B
:104B800010E0F8013197E730F10508F054C0EE5815
:104B9000FF4F0C9422EB4983BCDF61E084E30E9469
:104BA000BBE160E084E30E94F4E161E083E30E9402
:104BB000BBE160E083E30E94F4E161E085E30E94F1
:104BC000BBE161E085E30E94F4E11CBC80E58CBDA3
:104BD0004981423080F581E08DBD2DC061E004C087
:104BE000411105C041E062E0C60189DF24C040E018
:104BF00064E085DF40E0F7CFFC0183A18F3FD9F06F
:104C000060E0F2CF842FA8DF16C04423A1F0F701A3
:104C100081917F014983A0DF49814150F6CF442330
:104C200051F0F7018491498397DFFFEFEF1AFF0AF4
:104C300049814150F4CF81E00F90DF91CF911F91D6
:104C40000F91FF90EF90DF90CF9008952EE93FE015
:104C5000009729F0F9013197F1F70197F9CF0895FD
:104C6000BF92CF92DF92EF92FF920F931F93CF9359
:104C7000DF938C01EB01B42E790180E1481709F430
:104C80004AC08417E8F0EAE04E1709F1FFE04F133D
:104C90004CC041E0C8019EDE40E0BE01C801B7DE65
:104CA00041E8BE01C801BCDEF7014081469546954A
:104CB000BE01C801B5DE40E0BE01C8018BDE33C0D5
:104CC00081E1481759F1E5E14E1751F02EC043E05C
:104CD000C80177DE4CEB51E0BE01C801B1DE25C052
:104CE000CA80DB8044EB51E0C801AADEF6014481B2
:104CF000406BBE01C80194DE41E0BE01C80187DE01
:104D0000AE01B801C6017ED48823E9F040E0BE01BF
:104D1000C80160DE0AC048EA51E002C04CE951E037
:104D2000BE01C8018DDE81E00FC097014B2DBE0191
:104D3000C801DF91CF911F910F91FF90EF90DF900D
:104D4000CF90BF90D5C480E0DF91CF911F910F919C
:104D5000FF90EF90DF90CF90BF900895FC01E60F99
:104D6000F11D849190E0982F88273196E4918E0F61
:104D7000911D0895FC0184910895FCDF882311F0B2
:104D8000823011F486E0089583E0089580E008956C
:104D900066E0E4CF68E0E2CF0A96FC0184910895D2
:104DA0000B96FC0184910895BF92CF92DF92EF920F
:104DB000FF920F931F93CF93DF93EC01E62E0C81AC
:104DC0001D81C801D7DFF82E8C819D81D6DFB82EDA
:104DD00021E0F21619F0CC24CA9402C05FE0C52E7F
:104DE0008C819D81D9DFF82E8C819D81D9DFD82ED1
:104DF0008C819D81CFDFE0E6EE1538F4009729F035
:104E0000080F191F41E6F42E0FC08C819D81C0DF71
:104E1000F0E4FE1538F4009729F0080F191F31E46B
:104E2000F32E02C00F5E1F4FDE1440F4188A1B8A57
:104E30001C8A198A1A8A80E090E04FC0DF14B0F310
:104E40002B2D30E0F80184918F3F19F40F5F1F4F35
:104E50003FC0FE1035C08C819D818CDF98012F5F93
:104E60003F4FF801882311F0823091F484918B8BAD
:104E7000F90124912C8BF8013396E491E88BF80129
:104E80003496E491E98BF8013596E491EA8B16C0EB
:104E90009491892F8F7082508A8B92959F70998BF5
:104EA000F9012491822F8F708C8B22952F702B8B80
:104EB000F8013296E491E295EF70E88BC8010DC0DD
:104EC000F8013296E491EC210E0F111D020F131F11
:104ED000FD1409F4ABCFF394B5CFDF91CF911F91BF
:104EE0000F91FF90EF90DF90CF90BF9008954F9279
:104EF0005F927F928F929F92AF92BF92CF92DF92FA
:104F0000EF92FF920F931F93CF93DF931F92CDB732
:104F1000DEB72C01162F742E622F46DF6C0100972E
:104F200009F43BC0F2018481958127DFF82EF2015C
:104F3000838804899188910E8289781A172D101B15
:104F4000282D412F692DC2011ADD882319F1CF0CBC
:104F5000D11CF7E08F0E869486948694A82CB12CF1
:104F60001715C1F0392D76018E2D8C19881570F426
:104F7000F701049120E0412F632FC2013983CED283
:104F8000FFEFEF1AFF0A3981385FEECFCA0CDB1C46
:104F90001F5FE6CFF201808901C080E00F90DF91B2
:104FA000CF911F910F91FF90EF90DF90CF90BF9026
:104FB000AF909F908F907F905F904F9008950F9348
:104FC0001F93CF93DF9300D0CDB7DEB78C01DC0108
:104FD0005596ED91FC9156972B834A8369831995D9
:104FE0004A81480F2B816981C8010F900F900F9063
:104FF000DF91CF911F910F917ACF4F925F927F9265
:105000008F929F92AF92BF92CF92DF92EF92FF92D8
:105010000F931F93CF93DF931F92CDB7DEB72C0171
:10502000B62EA42E622FC0DE6C01009709F441C099
:10503000F20184819581A1DE882EF2011389E48832
:10504000F288F394FB0C91889A0C012F2E2D492D98
:105050006F2DC20194DC882349F1C80CD11C67E094
:10506000862E810E8694869486941FEF1E0D1F0D4A
:10507000712E7E18A82CB12C1715C1F0392D760190
:105080008E2D8C19881570F4F701049121E0432FBF
:10509000612FC201398342D2FFEFEF1AFF0A398133
:1050A000385FEECFCA0CDB1C1150E6CFF2018089CD
:1050B00001C080E00F90DF91CF911F910F91FF9081
:1050C000EF90DF90CF90BF90AF909F908F907F90A8
:1050D0005F904F900895AF92BF92DF92EF92FF9250
:1050E0000F931F93CF93DF931F921F92CDB7DEB71D
:1050F0008C01E62EF42EDC015596ED91FC9156972D
:1051000029833A831995F80E2981A22E3A81B32E6C
:10511000D12CF50121915F01222339F04F2D6E2D05
:10512000C801E5DEE80ED80EF4CF8D2D0F900F905C
:10513000DF91CF911F910F91FF90EF90DF90BF9083
:10514000AF900895AF92BF92DF92EF92FF920F93CC
:105150001F93CF93DF931F921F92CDB7DEB78C01C1
:10516000F62EE42EDC015596ED91FC91569729839D
:105170003A831995F81A2981A22E3A81B32ED12C9F
:10518000F50121915F01222339F04E2D6F2DC801C9
:1051900034DFE80ED80EF4CF8D2D0F900F90DF91F5
:1051A000CF911F910F91FF90EF90DF90BF90AF9044
:1051B0000895DC0114968D919C911597009709F440
:1051C0003FC057962C915797FC01211108C0359686
:1051D000E4915896EC935897FC013C9611C021300D
:1051E00041F43F96E4915896EC935897FC017096E1
:1051F00007C03D96E4915896EC935897FC013E9673
:10520000849159968C93599758968C9158979927D1
:1052100087FD909559962C915997821B910927FDEE
:1052200093955A962C915A97203441F0829FC00151
:105230001124E6E096958795EA95E1F75B968C93C5
:10524000089526EC36E2FC01368B258B0895CF932A
:10525000DF93EC018C819D818617970741F07D8358
:105260006C83CE01A6DF86EC96E29E8B8D8BDF9160
:10527000CF9108951F93CF93DF93EC011D821C8281
:105280001F821E82198681E0888782E28A871F86B4
:105290001E8680E090E02FEFFE01E80FF91F23A3A8
:1052A00001968E309105C1F711E018A3CE01C9DF38
:1052B0001F8B188E198E80E48A8F1B8E88E59DE2E5
:1052C0009AAB89ABDF91CF911F910895DB01ED91EE
:1052D000FC911994EF92FF921F93CF93DF931F924B
:1052E0001F92CDB7DEB77C01DC01D196ED91FC9128
:1052F000D29782E069837A83199520E030E04AE012
:1053000069817A81C701E2DF182FD701D196ED912B
:10531000FC91D29783E01995D701D196ED91FC913C
:10532000D29780E01995812F0F900F90DF91CF9148
:105330001F91FF90EF9008950F931F93CF93DF93EA
:10534000EC018B01E9A9FAA982E01995E9A9FAA96A
:1053500081E0199520E030E044E1B801CE01B6DFEC
:105360009E012D5C3F4F47E1B801CE01AFDFE9A9B7
:10537000FAA980E0DF91CF911F910F911994FF92CC
:105380000F931F93CF93DF93EC018B01E9A9FAA947
:1053900082E01995E9A9FAA981E0199520E030E0A9
:1053A00045E1B801CE0192DFF82E882339F09E0145
:1053B0002D5C3F4F47E1B801CE0188DFE9A9FAA98A
:1053C00080E019958F2DDF91CF911F910F91FF9064
:1053D0000895CF93DF931F92CDB7DEB749839E0127
:1053E0002F5F3F4F4FE072DF0F90DF91CF91089515
:1053F000FC01448F258F9C01245E3F4F42E366CF22
:10540000CF93DF931F92CDB7DEB79E012F5F3F4F43
:1054100046E45CDF89810F90DF91CF910895CF93AF
:10542000DF931F92CDB7DEB79E012F5F3F4F47E45A
:105430004DDF89810F90DF91CF91089520E030E01A
:1054400048E444CFCF93DF93EC016A817B81D8DFBE
:1054500088836A817B81CE01E2DF89836A817B81D7
:10546000CE01ECDF8B879E012D5C3F4F6A817B81F3
:1054700047E1CE01DF91CF9129CFCF93DF93EC01AC
:105480006A817B8127DF882321F0CE01DBDF81E089
:1054900001C080E0DF91CF910895CF92DF92EF922B
:1054A000FF920F93CF93DF931F921F92CDB7DEB77A
:1054B0006C017B012A834983DDDEF601F382E282FF
:1054C000498145A32A8124A303A3C6010F900F900D
:1054D000DF91CF910F91FF90EF90DF90CF90CDCFE4
:1054E000FC016281738128CFCF93DF93EC01EE85BD
:1054F000FF85309709F019956A817B81CE01DF9194
:10550000CF913DCF462FFC016281738162CF362F50
:10551000242FFC0162817381432F6ACF0F93FC011A
:1055200082819381648F458F278F068F9F01245E30
:105530003F4F4BE3BC01CF010F91C8CEFC0160A3EC
:105540000895FC0112828081815083831482089522
:10555000FC0120818281820F82839181891760F40E
:1055600084818F5F84838381820F891710F08FEF8E
:10557000890F838381E0089580E00895DC01169609
:10558000ED91FC91179715968C919F01280F311D75
:10559000C9011192E817F907E1F70895FC0191E0BC
:1055A0008381861708F490E021E0461708F020E098
:1055B000322F392B81E05281451708F480E0832394
:1055C0009223892B0895DC01FB01108212968C91A5
:1055D0001297818315968C9115978150828313962B
:1055E0008C9183830895FB0141812381213029F02F
:1055F000233031F468EF640F04C0642F485F01C0AA
:10560000642FCCCFFC01CB01BA01268137814581C3
:1056100010CADC011696ED91FC91179712968C91A9
:10562000481B477081E090E0042E01C0880F0A9467
:10563000EAF7E60FF11D3081222311F0832B02C01F
:105640008095832380830895FB014181DC011296BC
:105650002C911297421760F013962C9113972417F0
:1056600038F0608115962C91621710F42481D1CF07
:105670000895CF92DF92FF920F931F93CF93DF9302
:105680001F921F92CDB7DEB78C016B01FB01F28038
:105690008381813039F070F0823039F0833041F00D
:1056A00020E001C021E030E007C020E03FEF04C06F
:1056B0002FEFF9CF20E031E0F7FE07C0B601C801B7
:1056C00029833A83C1DF3A812981F6018081830FE2
:1056D00080838181820F8183FF0C71F70F900F907F
:1056E000DF91CF911F910F91FF90DF90CF900895A0
:1056F0000F931F93CF93DF938901FB01C281D38165
:105700004233D9F058F44531E1F0473109F14431E1
:1057100041F5CE0133DFCE0114DF23C04634E1F082
:105720004734E1F04B33E9F4B901CE015CDF882363
:10573000C1F0B801CE019DDF14C0B901CE0184DFF4
:1057400010C0CE0105DF882371F0CE0117DF09C03C
:10575000B901CE0138DF05C08D8101C08981F80112
:10576000808381E001C080E0DF91CF911F910F9194
:105770000895AF92BF92DF92EF92FF920F931F9323
:10578000CF93DF931F92CDB7DEB75C01E62EF42EE8
:10579000122F322FD62ED20E6D2D631B383048F0CB
:1057A0000FEF20E04F2DC5013983B8DE3981385025
:1057B000F3CF612F687F6E0D177071F087E081273E
:1057C0008F5F87700FEF10E001C0000F8A95EAF736
:1057D00020E04F2DC501A2DE0F90DF91CF911F91E8
:1057E0000F91FF90EF90DF90BF90AF900895AF9230
:1057F000BF92DF92EF92FF920F931F93CF93DF93AD
:105800001F92CDB7DEB75C01F62EE42E122F322F99
:10581000D42ED20E4D2D431B383048F00FEF21E02F
:105820006F2DC50139837ADE39813850F3CF412F8E
:10583000487F4E0D177071F087E081278F5F87706A
:105840000FEF10E001C0000F8A95EAF721E06F2DFD
:10585000C50164DE0F90DF91CF911F910F91FF90F2
:10586000EF90DF90BF90AF900895DF92EF92FF929C
:105870000F931F93CF93DF93EC01162FF42EE22E9C
:10588000D02E7DD88823F9F02E2D4F2D612FCE01FB
:1058900070DF2D2D4F2D612FCE01A9DF6FEF6E0D23
:1058A000610F2D2D4F2DCE01A2DF4FEF4D0D4F0D6E
:1058B0002E2D612FCE01DF91CF911F910F91FF907F
:1058C000EF90DF9056CFDF91CF911F910F91FF9016
:1058D000EF90DF900895EF92FF920F931F93CF9375
:1058E000DF93EC01F62EE22E142F040F2E2D412F04
:1058F0006F2DCE013EDF1F5F0113F8CFDF91CF91F7
:105900001F910F91FF90EF900895DF92EF92FF9219
:105910000F931F93CF93DF93EC01162FF42EE22EFB
:105920002ED8882329F02E2D4F2D612FCE01D3DFC5
:10593000DF91CF911F910F91FF90EF90DF9008952D
:1059400080E008958F929F92BF92CF92DF92EF9264
:10595000FF920F931F93CF93DF931F92CDB7DEB7C4
:105960008C014901FB01E280F380423309F44FC00E
:1059700048F44C3209F44BC04D3209F45AC0473157
:10598000D1F009C0463409F43AC0473409F43AC0AA
:105990004B3309F44EC09401B701C8010F90DF9159
:1059A000CF911F910F91FF90EF90DF90CF90BF901C
:1059B0009F908F908BCC47E1B70188DCB701C8017D
:1059C0001FDDF401B280B094B80EB701C80118DD34
:1059D000F401D080D094D80EB701C80120DDF401C5
:1059E000C380C094C80EB701C80119DDF4019181CC
:1059F0009095980FB082C182D282938334C0B70150
:105A0000FFDC02C0B7010BDDF40180832CC0B701BD
:105A1000C801498304DDF401D180D094D80EB701C8
:105A2000C801EEDCF40190819095980F9083D182AB
:105A300015C0B701C8014983F2DCF401D180D094CC
:105A4000D80EB701C801DCDCF40190819095980F65
:105A50009083D18283818E5F837083839401498197
:105A6000B701C80133DC81E00F90DF91CF911F9126
:105A70000F91FF90EF90DF90CF90BF909F908F900D
:105A80000895FC0122813381F2E024313F0749F07F
:105A9000309317022093160224E132E0FC01338395
:105AA000228322EA3CE23093150220931402CACCEE
:105AB0000895EF92FF920F931F93CF93DF931F925E
:105AC000CDB7DEB78C017B01460FF70161917F01F5
:105AD000F8018081918149830E94DBF0F801808187
