:100000000C94E6160C9417170C9417170C941717EA
:100010000C9417170C9417170C9417170C941717A8
:100020000C9417170C944FBA0C944FBA0C944FBA07
:100030000C9417170C9417170C9417170C94171788
:100040000C9417170C94E0770C9417170C9417174F
:100050000C9417170C9417170C94AE8A0C941DC5AA
:100060000C9417170C94C4280C9417170C9417179A
:100070000C9417170C9417170C9417170C94171748
:100080000C9417170C9417170C9417170C94171738
:100090000C9417170C9417170C9417170C94EFC3A4
:1000A0000C9417170C9417170C9417170C94171718
:1000B0000C9417170C9417170C9417170C94171708
:1000C0000C9417170C9417170C9417170C941717F8
:1000D0000C9417170C9417170C9417170C941717E8
:1000E0000C941717088B178B368B468B618B668B9E
:1000F000698B6E8B718B768B798B7E8B888B45BCF5
:1001000068BC6ABC76BC7CBC7FBC89BC40C645C6AA
:100110004AC654C65EC6D7C668C670C678C682C60A
:100120008CC696C6A5C6AFC6D7C6B9C6C3C6CDC609
:10013000F8C6FBC6EAC6EEC6F4C632C7FFC603C79A
:1001400009C70DC711C717C71BC71FC732C725C7A8
:1001500029C72DC7084AD73B3BCE016E84BCBFFDE3
:10016000C12F3D6C74319ABD56833DDA3D00C77F87
:1001700011BED9E4BB4C3E916BAAAABE0000008020
:100180003F05A84CCDB2D44EB93836A9020C50B9AF
:10019000918688083CA6AAAA2ABE000000803F00DB
:1001A0004D383420582059205A20450043616E6E46
:1001B0006F7420656E746572207375626469723A3B
:1001C00020004D3234004D323320257300617574A8
:1001D0006F25692E67006572726F7220777269747D
:1001E000696E6720746F2066696C65004E6F7420BD
:1001F0005344207072696E74696E670053442070B6
:1002000072696E74696E6720627974652000446556
:100210006C6574696F6E206661696C65642C20463C
:10022000696C653A200046696C652064656C65748C
:1002300065643A006F70656E206661696C65642C58
:100240002046696C653A200057726974696E6720B0
:10025000746F2066696C653A20002E0A006F706525
:100260006E206661696C65642C2046696C653A2075
:10027000002E0A006F70656E206661696C65642CE3
:100280002046696C653A200046696C652073656C90
:100290006563746564002053697A653A2000466995
:1002A0006C65206F70656E65643A20006F70656ED6
:1002B000206661696C65642C2046696C653A200093
:1002C0004E6F772066726573682066696C653A20A8
:1002D000004E6F7720646F696E672066696C653ABF
:1002E00020002220706F73002220706172656E748E
:1002F0003A2200535542524F5554494E45204341EE
:100300004C4C207461726765743A22004B494C4C26
:1003100045442E2000747279696E6720746F2063E3
:10032000616C6C207375622D67636F64652066690C
:100330006C6573207769746820746F6F206D616ECF
:1003400079206C6576656C732E204D4158206C6564
:1003500076656C2069733A005344206361726420AF
:100360006F6B006F70656E526F6F74206661696CA1
:10037000656400766F6C756D652E696E69742066B4
:1003800061696C656400534420696E69742066611C
:10039000696C0020204D3230302044300020204D48
:1003A0003230302044002044697361626C6564001F
:1003B00046696C616D656E742073657474696E67EF
:1003C000733A0020204D3235302043004C43442006
:1003D000436F6E74726173743A00204C00204300C6
:1003E00020440020490020204D333031205000505F
:1003F00049442073657474696E67733A002046003F
:1004000020420020204D313435204D31204800203D
:10041000460020420020204D313435204D30204808
:10042000004D6174657269616C20686561747570F6
:1004300020706172616D65746572733A00205A00B4
:1004400020590020204D323036205800486F6D650D
:10045000206F666673657420286D6D293A0020450B
:1004600000205A0020580020420020540020204D37
:10047000323035205300416476616E6365642076C6
:1004800061726961626C65733A20533D4D696E20FB
:10049000666565647261746520286D6D2F73292C03
:1004A00020543D4D696E2074726176656C206665DE
:1004B00065647261746520286D6D2F73292C20424C
:1004C0003D6D696E696D756D207365676D656E74E0
:1004D0002074696D6520286D73292C20583D6D614D
:1004E00078696D756D205859206A65726B20286D8A
:1004F0006D2F73292C20205A3D6D6178696D756DC3
:10050000205A206A65726B20286D6D2F73292C206C
:1005100020453D6D6178696D756D2045206A657275
:100520006B20286D6D2F732900205400205200206D
:10053000204D323034205000416363656C65726138
:1005400074696F6E733A20503D7072696E74696E93
:10055000672C20523D7265747261637420616E6411
:1005600020543D74726176656C00204500205A006D
:1005700020590020204D3230312058004D617869DB
:100580006D756D20416363656C65726174696F6E32
:1005900020286D6D2F7332293A00204500205A0023
:1005A00020590020204D3230332058004D617869A9
:1005B0006D756D2066656564726174657320286D64
:1005C0006D2F73293A00204500205A002059002041
:1005D000204D393220580053746570732070657255
:1005E00020756E69743A0048617264636F64656473
:1005F0002044656661756C742053657474696E6718
:1006000073204C6F616465640020496E76616C698B
:100610006420657874727564657220005072696E2A
:100620007465722068616C7465642E206B696C6CF3
:1006300028292063616C6C656421004B494C4C4552
:10064000442E200020746F6F206C6F6E67206578D9
:1006500074727573696F6E2070726576656E7465FD
:10066000640020636F6C6420657874727573696FC1
:100670006E2070726576656E746564006F6B0052F3
:100680006573656E643A200000526573756D696E1E
:1006900067207072696E74007468656E2070726590
:1006A000737320427574746F6E004578747275644C
:1006B000650048656174696E6720646F6E652E0021
:1006C0003F0020573A0020453A00543A00486561FF
:1006D00074696E672E2E2E007468656E20507265E8
:1006E000737320427574746F6E004D333030205335
:1006F00036353920503230300A4D333030205336C1
:1007000039382050323030004F666673657420618E
:1007100070706C6965642E004D3330302053343076
:100720002050323030004572723A20546F6F20668C
:1007300061722100546F6F206661722066726F6D66
:10074000207265666572656E636520706F696E7490
:10075000006C636420636F6E7472617374207661E1
:100760006C75653A200053657474696E6720547225
:100770006176656C20416363656C65726174696F55
:100780006E3A200053657474696E67205265747206
:1007900061637420416363656C65726174696F6E37
:1007A0003A200053657474696E67205072696E74E4
:1007B00020416363656C65726174696F6E3A2000F5
:1007C00053657474696E67205072696E7420616E2F
:1007D000642054726176656C20416363656C657258
:1007E0006174696F6E3A20004D31343520533C6995
:1007F0006E6465783E206F7574206F662072616E3E
:1008000067652028302D3129007A5F6D61783A20A4
:10081000007A5F6D696E3A2000795F6D61783A20E9
:1008200000795F6D696E3A2000785F6D61783A20DB
:1008300000785F6D696E3A2000205A3A0020593ADC
:100840000020436F756E7420583A200020453A000E
:10085000205A3A0020593A00583A004649524D571A
:100860004152455F4E414D453A4D61726C696E2073
:10087000312E312E302D5243322046726F6D204181
:1008800072636869766520534F555243455F434F05
:1008900044455F55524C3A687474703A2F2F202E9D
:1008A0002E2E2050524F544F434F4C5F56455253BB
:1008B000494F4E3A312E30204D414348494E455F15
:1008C000545950453A47696761626F7420455854DE
:1008D00052554445525F434F554E543A3120555579
:1008E00049443A30303030303030302D30303030D4
:1008F0002D303030302D303030302D303030303001
:10090000303030303030300A0047696761626F74D0
:10091000204F66662E0047696761626F74207265BA
:100920006164792E0042656420646F6E652E00203C
:10093000423A0020453A00543A0042656420486536
:100940006174696E672E0048656174696E67206422
:100950006F6E652E003F0020573A0020453A005444
:100960003A0048656174696E672E2E2E0020424061
:100970003A0020403A00202F00205400202F002071
:10098000423A00202F0020543A006F6B004B494C34
:100990004C45442E2000444542554720445259526C
:1009A000554E20454E41424C454400444542554732
:1009B000204543484F20454E41424C45440025695F
:1009C000206D696E2C2025692073656300456E6477
:1009D0002066696C65206C69737400426567696E96
:1009E0002066696C65206C697374004E6F206D6FB2
:1009F00076652E0047696761626F74207265616475
:100A0000792E00526573756D696E67207072696E1C
:100A100074005761697420666F7220757365722E59
:100A20002E2E005761726E696E673A20486F6D69AD
:100A30006E672042756D702044697669736F72200D
:100A40003C203100536C6565702E2E2E00220A006A
:100A5000556E6B6E6F776E20636F6D6D616E643A6D
:100A6000202200256920686F757273202569206D2A
:100A7000696E7574657300446F6E65207072696E7F
:100A800074696E672066696C65004B494C4C45443F
:100A90002E200053544F505045442E200050726970
:100AA0006E7465722073746F707065642064756510
:100AB00020746F206572726F72732E2046697820E1
:100AC000746865206572726F7220616E6420757340
:100AD00065204D39393920746F20726573746172E5
:100AE000742E202854656D7065726174757265206E
:100AF00069732072657365742E2053657420697460
:100B00002061667465722072657374617274696EB7
:100B10006729004E6F204C696E65204E756D6265C9
:100B200072207769746820636865636B73756D2CD8
:100B3000204C617374204C696E653A20004E6F2022
:100B4000436865636B73756D2077697468206C69A1
:100B50006E65206E756D6265722C204C6173742019
:100B60004C696E653A2000636865636B73756D2030
:100B70006D69736D617463682C204C617374204CD3
:100B8000696E653A20004C696E65204E756D626530
:100B900072206973206E6F74204C617374204C69ED
:100BA0006E65204E756D6265722B312C204C617321
:100BB00074204C696E653A20004D313130006F6B06
:100BC00000446F6E6520736176696E672066696C9C
:100BD000652E004D3239002020506C616E6E6572BA
:100BE00042756666657242797465733A20002046E4
:100BF000726565204D656D6F72793A20004F6374A0
:100C0000203138203230313500436F6D70696C65AA
:100C1000643A200028466965646C65722C2047425E
:100C2000322E302056342E30302900207C20417561
:100C300074686F723A2000323031352D30392D32E0
:100C4000382031323A303000204C617374205570B6
:100C500064617465643A200020312E312E302D52AB
:100C60004332004D61726C696E0020536F66747779
:100C70006172652052657365740020576174636802
:100C8000646F67205265736574002042726F776EDF
:100C9000206F757420526573657400204578746503
:100CA000726E616C20526573657400506F77657267
:100CB000557000737461727400FF01FF0000A04062
:100CC0000000A040000000400040174400C019444C
:100CD000008016440000000000C01944000000001D
:100CE0000040174400C01944008016440000000072
:100CF00000000000000000006563686F3A00457264
:100D0000726F723A0020746F6F206C6F6E6720658F
:100D10007874727573696F6E2070726576656E7423
:100D200065640020636F6C64206578747275736904
:100D30006F6E2070726576656E746564007C3C3EF3
:100D40005E2B3D3F2F5B5D3B2C2A225C004D3834EF
:100D500020582059205A204500656E6473746F70C6
:100D600073206869743A205A00205A3A00656E640C
:100D700073746F7073206869743A20590020593A6F
:100D800000656E6473746F7073206869743A2058DC
:100D90000020583A00656E6473746F707320686940
:100DA000743A200024F4D43050C38E20C2A24017DD
:100DB000828B7011127A910D816CD90AA861E108B9
:100DC000C7586607615143061E4B5D05C145A70420
:100DD0001A411104093D9803713931034036DB0291
:100DE00065339102D4305402802E1D02632CEE0133
:100DF000752AC501B028A001102781018F25640143
:100E00002B244B01E0223401AC211F018D200D0168
:100E1000801FFC00841EED00971DDF00B81CD2006F
:100E2000E61BC600201BBC00641AB200B219A80061
:100E30000A19A0006A189900D117910040178B0079
:100E4000B516840031167E00B31579003A1573008B
:100E5000C7146F0058146A00EE136600881363000D
:100E600025135E00C7125B006C1257001512540068
:100E7000C111510070114F0021114B00D6104900D3
:100E80008D1047004610440002104200C00F400081
:100E9000800F3E00420F3C00060F3B00CB0E380097
:100EA000930E37005C0E3500270E3400F30D320030
:100EB000C10D3100900D3000600D2E00320D2D005F
:100EC000050D2C00D90C2B00AE0C2900850C290037
:100ED0005C0C2700350C27000E0C2600E80B2400C4
:100EE000C40B2400A00B23007D0B23005A0B210010
:100EF000390B2100180B2000F80A1F00D90A1E0028
:100F0000BB0A1E009D0A1D00800A1D00630A1C000A
:100F1000470A1B002C0A1B00110A1A00F7091A00C5
:100F2000DD091900C4091900AB091900920917005D
:100F30007B091800630917004C09160036091600D2
:100F4000200916000A091500F5081500E00814002C
:100F5000CC081400B8081400A4081400900813006A
:100F60007D0812006B081300580812004608120092
:100F700034081100230811001208110001081100A3
:100F8000F0071000E0071000D0071000C0071000A5
:100F9000B0070F00A107100091070E0083070F0094
:100FA00074070F0065070E0057070E0049070E0073
:100FB0003B070D002E070E0020070D0013070D0044
:100FC00006070D00F9060C00ED060D00E0060C000A
:100FD000D4060C00C8060C00BC060C00B0060C00C1
:100FE000A4060B0099060C008D060B0082060B0070
:100FF00077060B006C060B0061060A0057060B0013
:101000004C060A0042060A0038060A002E060A00AC
:1010100024060A001A060A001006090007060A003C
:10102000FD050900F4050900EB050900E2050900CA
:10103000D9050900D0050900C7050900BE0509004A
:10104000B5050800AD050800A50509009C050800C8
:10105000940508008C050800840508007C0508003C
:10106000740508006C050700650508005D050700AC
:10107000560508004E050700470507004005080013
:1010800038050700310507002A050700230507007A
:101090001C050600160507000F05070008050600D9
:1010A00002050700FB040600F5040700EE04060035
:1010B000E8040600E2040700DB040600D50406008D
:1010C000CF040600C9040600C3040600BD040600E0
:1010D000B7040600B1040500AC040600A60406002F
:1010E000A00405009B04060095040500900406007A
:1010F0008A04050085040500800406007A040500C2
:1011000075040500700405006B0405006604050005
:10111000610405005C040500570405005204050045
:101120004D04050048040500430405003E04040086
:101130003A04050035040500300404002C040500C1
:1011400027040400230405001E0404001A040400FC
:1011500016040500110404000D0404000904050030
:101160000404040000040400FC030400F803040069
:10117000F4030400F0030400EC030400E80304009B
:10118000E4030400E0030400DC030400D8030400CB
:10119000D4030400D0030400CC030400C8030300FC
:1011A000C503030024F404D9201BC40C5C0E98046E
:1011B000C4095F0265077101F405F900FB04B3007F
:1011C00048048700C1036900580355000303450024
:1011D000BE023A008402310053022A00290225008F
:1011E00004022000E4011C00C8011900AF0117002F
:1011F00098011400840113007101100061011000B6
:1012000051010E0043010D0036010B002B010B00B4
:1012100020010B00150109000C0109000301080061
:10122000FB000800F3000800EB000700E4000600E4
:10123000DE000600D8000600D2000600CC00050043
:10124000C7000500C2000500BD000400B90004008D
:10125000B5000400B1000400AD000400A9000400C2
:10126000A5000300A20003009F0004009B000300F0
:101270009800030095000200930003009000030013
:101280008D0002008B00030088000200860002002F
:1012900084000300810002007F0002007D00020044
:1012A0007B00020079000200770001007600020056
:1012B0007400020072000100710002006F00020061
:1012C0006D0001006C0002006A000100690002006C
:1012D0006700010066000100650001006400020073
:1012E0006200010061000100600001005F00020077
:1012F0005D0001005C0001005B0001005A0001007C
:10130000590001005800010057000100560001007B
:10131000550001005400010053000000530001007B
:101320005200010051000100500001004F00010077
:101330004E0000004E0001004D0001004C00010075
:101340004B0000004B0001004A0001004900010071
:10135000480000004800010047000100460000006E
:101360004600010045000000450001004400010066
:101370004300000043000100420000004200010061
:101380004100000041000100400001003F0000005A
:101390003F0001003E0000003E0001003D00000053
:1013A0003D0001003C0000003C0000003C0001004A
:1013B0003B0000003B0001003A0000003A00010041
:1013C000390000003900010038000000380000003A
:1013D000380001003700000037000100360000002F
:1013E0003600000036000100350000003500000026
:1013F000350001003400000034000000340001001A
:101400003300000033000000330001003200000010
:101410003200000032000100310000003100000005
:1014200031000100300000003000000030000100F9
:101430002F0000002F0000002F0000002F000100EF
:101440002E0000002E0000002E0001002D000000E4
:101450002D0000002D0000002D0001002C000000D8
:101460002C0000002C0000002C0001002B000000CC
:101470002B0000002B0000002B0001002A000000C0
:101480002A0000002A0000002A00010029000000B4
:1014900029000000290000002900000029000100A7
:1014A000280000002800000028000000280000009C
:1014B000280001002700000027000000270000008E
:1014C0002700000027000100260000002600000081
:1014D0002600000026000000260001002500000074
:1014E0002500000025000000250000002500000068
:1014F000250001002400000024000000240000005A
:10150000240000002400010023000000230000004C
:10151000230000002300000023000000230000003F
:101520002300010022000000220000002200000031
:101530002200000022000000220001002100000023
:101540002100000021000000210000002100000017
:101550002100000021000100200000002000000008
:1015600020000000200000002000000020000000FB
:1015700020000000200001001F0000001F000000EC
:101580001F0000001F0000001F0000001F000000DF
:101590001F0001001E0000001E0000001E000000D1
:1015A0001E0000004D494E54454D5020747269672D
:1015B0006765726564004572723A204D494E544524
:1015C0004D5020424544004D415854454D502074E3
:1015D0007269676765726564004572723A204D41B1
:1015E0005854454D502042454400546865726D6121
:1015F0006C2052756E6177617900544845524D41B7
:101600004C2052554E415741590048656174696EEE
:1016100067206661696C65640048656174696E671E
:10162000206661696C6564004D494E54454D5020FB
:10163000747269676765726564004572723A204D1D
:10164000494E54454D5000626564002C20737973F7
:1016500074656D2073746F707065642120486561D6
:101660007465725F49443A20004D415854454D50CD
:1016700020747269676765726564004572723A200A
:101680004D415854454D50004B642000236465661D
:10169000696E65202044454641554C545F004B69B6
:1016A000200023646566696E6520204445464155E7
:1016B0004C545F004B70200023646566696E6520A2
:1016C0002044454641554C545F00504944204175E3
:1016D000746F74756E652066696E697368656421E0
:1016E0002050757420746865206C617374204B7091
:1016F0002C204B6920616E64204B6420636F6E73F5
:1017000074616E74732066726F6D2062656C6F77A2
:1017100020696E746F20436F6E66696775726174BD
:10172000696F6E2E6800504944204175746F74755E
:101730006E65206661696C6564212074696D656FF2
:1017400075740020403A00543A00423A005049442F
:10175000204175746F74756E65206661696C65648F
:10176000212054656D706572617475726520746FA7
:101770006F206869676800204B643A2000204B693D
:101780003A2000204B703A200020436C617373694B
:10179000632050494420002054753A2000204B75A6
:1017A0003A2000206D61783A2000206D696E3A2061
:1017B0000020643A200020626961733A20004D34B1
:1017C0003238000920000920002D2D2D2E2D2D004E
:1017D0002D2D2D002D2D2D002D2D2D002D2D3A2DB3
:1017E0002D004D363030004368616E6765206669B4
:1017F0006C616D656E7400466C6F7700466C6F7738
:1018000000466C6F7700466C6F770046616E207300
:10181000706565640046616E2073706565640042A2
:10182000656400426564004E6F7A7A6C65004E6FA5
:101830007A7A6C6500537065656400537065656401
:10184000004D61696E004368616E67652066696C72
:10185000616D656E74203100507265706172650053
:101860004D6F76652058004D6F76652059004D6F9D
:101870007665205A00457874727564657200457803
:10188000747275646572004D6F7665205A004D6FF5
:1018900076652059004D6F76652058004D6F76654E
:1018A0002061786973004D6F766520302E316D6D43
:1018B000004D6F766520316D6D004D6F766520317E
:1018C000306D6D00507265706172650050726568B0
:1018D00065617420504C4120426564005072656817
:1018E00065617420504C41005072657061726500F2
:1018F00050726568656174204142532042656400FE
:101900005072656865617420414253005072657081
:10191000617265004D3830005377697463682070D8
:101920006F776572206F6E004D38310053776974A0
:10193000636820706F776572206F666600436F6F13
:101940006C646F776E005072656865617420414207
:1019500053005072656865617420504C41004D38E9
:10196000340044697361626C6520737465707065DE
:101970007273004D6F7665206178697300536574EA
:1019800020686F6D65206F666673657473004732FB
:1019900038004175746F20686F6D65004368616E33
:1019A00067652066696C616D656E74004D61696E76
:1019B0000042656400426564004E6F7A7A6C65008F
:1019C0004E6F7A7A6C650046616E2073706565644F
:1019D0000046616E2073706565640054656D7065C6
:1019E0007261747572650042656400426564004E00
:1019F0006F7A7A6C65004E6F7A7A6C650046616E1C
:101A00002073706565640046616E2073706565645F
:101A10000054656D70657261747572650050726511
:101A2000686561742041425320636F6E6600507296
:101A3000656865617420504C4120636F6E6600508C
:101A400049442D43005049442D43005049442D44FE
:101A5000005049442D44005049442D490050494408
:101A60002D49005049442D50005049442D5000202C
:101A700008204661637400200820466163740020DA
:101A800008204D6178002008204D61780020082052
:101A90004D696E002008204D696E004175746F74A9
:101AA000656D70004F6666004F6E200046616E20C7
:101AB00073706565640046616E20737065656400CF
:101AC00042656400426564004E6F7A7A6C65004E30
:101AD0006F7A7A6C6500436F6E74726F6C00457339
:101AE000746570732F6D6D004573746570732F6D21
:101AF0006D005A73746570732F6D6D005A73746541
:101B000070732F6D6D005973746570732F6D6D0058
:101B10005973746570732F6D6D00587374657073AD
:101B20002F6D6D005873746570732F6D6D00412DAE
:101B300074726176656C00412D74726176656C001B
:101B4000412D7265747261637400412D7265747207
:101B500061637400416D6178206500416D6178209A
:101B60006500416D6178207A00416D6178207A00CE
:101B7000416D6178207900416D6178207900416D77
:101B80006178207800416D61782078005654726148
:101B900076206D696E005654726176206D696E0014
:101BA000566D696E00566D696E00566D61782065E0
:101BB00000566D6178206500566D6178207A005678
:101BC0006D6178207A00566D6178207900566D61DC
:101BD00078207900566D6178207800566D61782004
:101BE000780056652D6A65726B0056652D6A6572C0
:101BF0006B00567A2D6A65726B00567A2D6A657293
:101C00006B005678792D6A65726B005678792D6A6B
:101C100065726B00416363656C00416363656C00D2
:101C2000436F6E74726F6C0046696C2E204469615C
:101C30002E0046696C2E204469612E004520696E95
:101C4000206D6D33004F6666004F6E2000436F6E4F
:101C500074726F6C004C434420636F6E74726173D6
:101C60007400526573746F7265206661696C73618C
:101C70006665004C434420636F6E74726173740038
:101C800046696C616D656E74004D6F74696F6E00AE
:101C900054656D7065726174757265004D61696E31
:101CA000004D3234004D323320257300022E2E00B9
:101CB0000152656672657368004D61696E004D3250
:101CC0003100496E69742E205344206361726400B0
:101CD0004E6F2053442063617264004D32310043E3
:101CE00068616E67652053442063617264005072BE
:101CF000696E742066726F6D2053440053746F7068
:101D0000207072696E7400526573756D6520707213
:101D1000696E74005061757365207072696E74002D
:101D2000436F6E74726F6C00507265706172650003
:101D300054756E6500496E666F2073637265656EDB
:101D40000000060900FE070192032120FFFF08FFA3
:101D500007FF000000060000010707060200808060
:101D60008080800080030202060105A0A00507070D
:101D70000600005050F850F85050050707060000C4
:101D80002078A07028F020050707060000C0C810C2
:101D9000204098180507070600006090A040A89012
:101DA00068020303060104C0408003070706010020
:101DB00020408080804020030707060100804020EB
:101DC0002020408005050506000120A870A82005F8
:101DD00005050600012020F820200203030602FF6B
:101DE000C04080050101060003F80202020602005D
:101DF000C0C0050505060001081020408005070742
:101E0000060000708888888888700307070601002C
:101E100040C040404040E0050707060000708808C9
:101E2000708080F8050707060000F81020100808E9
:101E3000F005070706000010305090F81010050755
:101E400007060000F880F0080888700507070600FC
:101E500000708080F0888870050707060000F80889
:101E60001020202020050707060000708888708851
:101E700088700507070600007088887808087002D7
:101E80000505060200C0C000C0C00206060602FF2B
:101E9000C0C000C04080040707060000102040803A
:101EA000402010050303060002F800F804070706A7
:101EB00001008040201020408005070706000070C8
:101EC00088081020002005070706000070880868B1
:101ED000A8A870050707060000708888F888888819
:101EE000050707060000F08888F08888F0050707D6
:101EF0000600007088808080887005070706000053
:101F0000F08888888888F0050707060000F8808038
:101F1000F08080F8050707060000F88080F08080D8
:101F200080050707060000708880B888887005075C
:101F300007060000888888F8888888010707060255
:101F400000808080808080800507070600003810B0
:101F500010101090600507070600008890A0C0A030
:101F60009088050707060000808080808080F80543
:101F7000070706000088D8A888888888050707060C
:101F800000008888C8A898888805070706000070A0
:101F9000888888888870050707060000F08888F020
:101FA00080808005070706000070888888A89068F0
:101FB000050707060000F08888F0A090880507074D
:101FC000060000788080700808F00507070600000A
:101FD000F820202020202005070706000088888898
:101FE00088888870050707060000888888888850D8
:101FF000200507070600008888888888A8500507FC
:1020000007060000888850205088880507070600CA
:102010000088888850202020050707060000F8085F
:1020200010204080F8030707060100E080808080D0
:1020300080E0050505060001804020100803070721
:10204000060100E02020202020E005030306000414
:10205000205088050101060000F802020206020570
:102060008040050505060000700878887805070798
:102070000600008080B0C88888F0050505060000CD
:102080007080808870050707060000080868988837
:1020900088780505050600007088F8807005070738
:1020A0000600003048E0404040400506060600FFBC
:1020B0007088887808700507070600008080B0C81F
:1020C0008888880107070602008000808080808061
:1020D0000308080601FF200020202020A04004075C
:1020E00007060000808090A0C0A0900307070601AB
:1020F00000C04040404040E0050505060000D0A873
:10210000A8A8A8050505060000B0C88888880505A8
:102110000506000070888888700506060600FFF036
:102120008888F080800506060600FF788888780891
:1021300008050505060000B0C88080800505050675
:10214000000070807008F00407070600004040E0BF
:1021500040404030050505060000888888986805DD
:102160000505060000888888502005050506000042
:102170008888A8A8500505050600008850205088CA
:102180000506060600FF888888780870050505069C
:102190000000F8102040F803070706010020404027
:1021A00080404020010707060200808080808080F8
:1021B0008003070706010080404020404080050260
:1021C0000206000268900000000600000000000601
:1021D00000000000000600000000000600000000F3
:1021E00000060000000000060000000000060000DD
:1021F00000000006000000000006000000000006CD
:1022000000000000000600000000000600000000C2
:1022100000060000000000060000000000060000AC
:10222000000000060000000000060000000000069C
:102230000000000000060000000000060000000092
:10224000000600000000000600000000000600007C
:10225000000000060000000000060000000000066C
:102260000000000000060000000000060000000062
:10227000000600000000000600000000000600004C
:10228000000000060000000000060000000000063C
:102290000000010707060200800080808080800522
:1022A00007070600002070A8A0A8702005070706F1
:1022B0000000304040E04050A805050506000088B9
:1022C00070507088050707060000885020F820F835
:1022D00020010707060200808080008080800508BA
:1022E000080600003048205050209060030101068D
:1022F0000107A0050707060000F888B8B8B888F8F5
:10230000050707060001700878887800F8050505BC
:102310000600012850A05028050303060001F80814
:10232000080202020602064080050707060000F8C0
:1023300088A88898A8F8050101060006F804040496
:10234000060003609090600507070600002020F853
:10235000202000F804050506000360902040F003EB
:102360000505060003E020E020E002020206020666
:1023700040800508080600FF8888888898E88080E3
:1023800005070706000078989878181818020202C6
:10239000060202C0C00202020602FF4080030505D9
:1023A00006000340C04040E00507070600017088B2
:1023B00088887000F8050505060001A0502850A087
:1023C0000507070600008890A858B8080805070701
:1023D0000600008890B848982038050808060000D4
:1023E000C040C048D838080805070706000020008C
:1023F0002040808870050808060000402000708892
:10240000F888880508080600001020007088F88801
:10241000880508080600002050007088F8888805A4
:1024200008080600006890007088F8888805080889
:102430000600005000708888F888880508080600A3
:10244000002050207088F8888805070706000038AB
:1024500060A0B8E0A0B80508080600FF708880807A
:1024600088702060050808060000402000F880F011
:1024700080F8050808060000081000F880F080F8D1
:10248000050808060000205000F880F080F80507D5
:10249000070600005000F880F080F80308080601E5
:1024A00000804000E0404040E003080806010020B2
:1024B0004000E0404040E003080806010040A00062
:1024C000E0404040E0030707060100A000E0404074
:1024D00040E0050707060000704848E848487005D6
:1024E000080806000068900088C8A89888050808B1
:1024F000060000402070888888887005080806005B
:102500000010207088888888700508080600002060
:1025100050007088888870050808060000689000E0
:102520007088888870050808060000500070888848
:102530008888700505050600018850205088050828
:10254000080600FF1070A8A8A8A870400508080693
:1025500000004020888888888870050808060000E8
:102560001020888888888870050808060000205098
:102570000088888888700508080600005000888850
:1025800088888870050808060000102088502020E0
:1025900020200509090600FFC040704848704040EF
:1025A000E00408080601FF609090A09090E080058C
:1025B00008080600004020007008788878050808A0
:1025C00006000010200070087888780508080600CA
:1025D0000020500070087888780508080600006818
:1025E0009000700878887805070706000050007092
:1025F00008788878050808060000205020700878C0
:102600008878050606060000D02878A0A8500506A0
:10261000060600FF7080887020600508080600002C
:102620004020007088F8807005080806000010201F
:10263000007088F8807005080806000020500070BF
:1026400088F8807005070706000050007088F88041
:102650007003080806010080400040C04040E003CD
:10266000080806010020400040C04040E003080880
:1026700006010040A00040C04040E00307070601FB
:1026800000A00040C04040E0050707060000A04051
:10269000A010788870050808060000689000B0C88F
:1026A000888888050808060000402000708888880F
:1026B00070050808060000102000708888887005E2
:1026C00008080600002050007088888870050808F7
:1026D000060000689000708888887005070706006B
:1026E00000500070888888700505050600012000EC
:1026F000F800200507070600FF1070A8A8A8704082
:1027000005080806000040200088888898680508A9
:1027100008060000102000888888986805080806C8
:102720000000205000888888986805070706000088
:10273000500088888898680509090600FF10200065
:10274000888888F808700407070601FFC0406050B9
:102750006040E00508080600FF5000888888780877
:102760007000060900FE000000000001090008FEDC
:10277000000005080806000040F0C8888898781016
:10278000050808060000C0F88888888888F80505CC
:10279000050600012030F83020050808060000205A
:1027A00070F820202020E00509090600FF2070A80D
:1027B000A8B8888870200509090600FFE080C0B02D
:1027C000A8283028280509090600FFF8A888888865
:1027D0008888A8F8050A0A0600FE20505050508844
:1027E000A8A8887003030306000340A0400000006F
:1027F0000000000000000000007FFFE0000000007B
:1028000000000000000000007000E0000000000078
:102810000000000000000061F860000000000000FF
:1028200000000000000041F820000000000000004F
:10283000000000000040F020000000000000000048
:1028400000000000406020000000000000000000C8
:102850000000005801A07F8000000000000000413F
:1028600004005C63A0FFC0000000000000002082A4
:10287000005EF7A0FFC00000000000000020820002
:102880005EF7A0FFC0000000000000004104005CF3
:1028900063A07F8000000000000000820800580153
:1028A000A07F8000000000000001041000406020B4
:1028B000FFC00000000000000104100040F020FFF5
:1028C000C00000000000000082080041F820FFC0A6
:1028D0000000000000000041040061F8603F0000BB
:1028E0000000000000000000007000E01E0000007A
:1028F0000000000001FFFF807FFFE00C00000000EF
:1029000000000001FFFF8000000000000000000048
:102910000000000000007FFFE00000000000000059
:1029200000000000007000E0000000000000000057
:1029300000000000630C60000000000000000000C8
:10294000000000470E200000000000000000000012
:1029500000004F0F200000000000000000000000F9
:10296000005F0FA000000000000000000000000059
:102970005E07A07F800000000000000041040040CE
:102980006020FFC00000000000000020820040F036
:1029900020FFC00000000000000020820040F02066
:1029A000FFC0000000000000004104004060207FE4
:1029B00080000000000000008208005E07A07F8009
:1029C000000000000000010410005F0FA0FFC00025
:1029D0000000000000010410004F0F20FFC00000A5
:1029E0000000000000820800470E20FFC000000029
:1029F00000000000410400630C603F000000000084
:102A00000000000000007000E01E00000000000058
:102A10000001FFFF807FFFE00C00000000000000CD
:102A200001FFFF800000000000000C00000000001B
:102A300000001E000000000000003F8000000000B9
:102A40000000FFE0000000000003FFF800000000AD
:102A5000000FFFFE00000000003FF3FF0000000039
:102A6000007FE0FFC000000001FF807FE000000069
:102A700007FE001FF80000001FFC0007FE0000001A
:102A80007FF00001FF800000FFC000007FE0000336
:102A9000FF000C003FF00007FE001E000FFC001FAF
:102AA000F8007F8003FF007FE001FFE001FF807FEF
:102AB0008007FFF8007F807FE00FFFFE00FF807F30
:102AC000F03FFFFF03FF807FFC7FFFFFC7FF807F9A
:102AD000FFFFFFFFFFFF807CFFFFFFFFFFEF807C1A
:102AE0003FFFFFFFFF8F807C0FFFFFFFFE0F807C0B
:102AF00007FFFFFFFC0F807C07FFFFFFFC0F807CC0
:102B000007FFFFFFFC0F807C07FFFFFFFC0F807CAF
:102B100007FFFC61FC0F807C07FFFBAEFC0F807C95
:102B20000767FFAF7C0F807C079BFF6F7C0F807C6B
:102B300007DE6C6F7C0F807C07DDB7AF7C0F807C7D
:102B400007DC3BAF7C0F807C07BDEB6EFC0F807C0D
:102B500007BE1CE1FC0F807C07FFFFFFFC0F807CA1
:102B600007FFFFFFFC0F807C07FFFFFFFC0F807C4F
:102B700007FFFFFFF80F807C01FFFFFFE00F807C65
:102B8000007FFFFFC00F807C003FFFFF000F807EB3
:102B9000000FFFFE000F807F8003FFF8003F807F63
:102BA000E000FFE000FF807FF8003F8003FF800F20
:102BB000FC001F000FFE0007FF001F001FFC0001AC
:102BC000FF801F007FF00000FFE01F01FFC000003A
:102BD0003FF81F07FF0000000FFE1F1FFC00000052
:102BE00003FF9F3FF000000001FFDFFFE000000057
:102BF000007FFFFF80000000001FFFFF00000000BB
:102C00000007FFFC000000000001FFF000000000D2
:102C10000000FFC00000000000003F800000000036
:102C200000000E00000000FFE0FFD1A4AFFF32FF64
:102C3000D0FFFEFFE0FFD1AC00AEA5FFD0FFFEFF4E
:102C4000E0FFD11004FFFEFFD0FFE0FFCAFFD1403C
:102C5000A1C0A6A22FF800278108AC00AFFF64A591
:102C6000FF64FF64A4FFD0FFFE00000A0B02090C02
:102C70000D0E080703040100000000000000000022
:102C80000000000000000000000000000000000044
:102C90000000000000121110000000000000000001
:102CA0000000000000000000000000000000000123
:102CB000021020200808102040102040800201024D
:102CC0000108040201010204081020408080402015
:102CD0001008040201800402018040201008040250
:102CE00001080402010102040810204080010204CE
:102CF000081020408005050505070508080808029A
:102D00000202020A0A080804040404010101010184
:102D10000101010303030303030303040707070C73
:102D20000C0C0C0C0C0C0C02020202060606060629
:102D30000606060B0B0B0B0B0B0B0B0000200023E6
:102D400000260029002C002F0032000001000003A3
:102D5000010601090100002200250028002B002E99
:102D6000003100340002010000050108010B0100E0
:102D7000002100240027002A002D0030003300012C
:102D8000010000040107010A014E414E494E495419
:102D900059494E46CDCCCC3D0AD7233C17B7D13844
:102DA00077CC2B329595E6241FB14F0A00002041C5
:102DB0000000C84200401C4620BCBE4CCA1B0E5A34
:102DC000AEC59D74C65433BAC3C3CA5411241FBEC2
:102DD000CFEFD1E2DEBFCDBF00E00CBF14E0A0E03A
:102DE000B2E0E6E9F6EA01E00BBF02C007900D92FF
:102DF000A63AB107D9F725E1A6EAB4E001C01D92D1
:102E0000A436B207E1F71DE2CAECDDE200E006C03D
:102E100022970109FE010BBF0E940CCDC43CD107D3
:102E200080E00807A9F70E94CAC70C943AD30C9413
:102E30000000452B31F03C9A449A0E9496C5449874
:102E400008950C9496C5FC01148217821382128295
:102E50008BEF93E09183808308952BEF33E0FC01A7
:102E6000318320832781222319F004960C949F6CD0
:102E70000895CF92DF92EF92FF920F931F93CF931B
:102E8000DF93EC018F96DFDFCE01805B9F4FDBDFAE
:102E90007E012FE6E20EF11C87016E013BE5C31AAD
:102EA0003EEFD30AC801CFDF015E1F4F0C151D0591
:102EB000C9F7FE01E955FE4F89E1818314823596F9
:102EC000178ACE0186539E4FBEDFFE01E558FD4FA7
:102ED000108211821282138238961082118212821D
:102EE00013821A821B8218821982F80111821082C1
:102EF000FE01E751FE4F108286E391E0F7019C014D
:102F0000119221503040E1F7FE01E957FD4F81E079
:102F100080831EA61DA60E9467C5C158DD4F685755
:102F20007C4E8F4F9F4F688379838A839B83DF9189
:102F3000CF911F910F91FF90EF90DF90CF90089568
:102F4000FC0120E03EE2DB014C91403241F02830B0
:102F500011F430833196DB014C91408331962F5F21
:102F60006F5F7F4F2B3079F7108208952F923F9239
:102F70004F925F926F927F928F929F92AF92BF9289
:102F8000CF92DF92EF92FF920F931F93CF93DF9335
:102F9000CDB7DEB7C657D1090FB6F894DEBF0FBE66
:102FA000CDBF8C016B015A0129012DB73EB7E396C5
:102FB0003FAF2EAFE397AD961FAEAD9734E0A30EB3
:102FC000B11C4296E5969FAF8EAFE597180198E742
:102FD000291A9DEF390AF801E657FD4FAF96FFAF6A
:102FE000EEAFAF973801F5E06F0E711C7E012FE553
:102FF000E20EF11C80E490E08C0F9D1F0496E79692
:103000009FAF8EAFE797E5964EAD5FADE597BE01FA
:103010006F5F7F4FC5010E94056B18160CF03EC113
:103020002C85322F3871303109F0BCC0F10180811C
:1030300091810197029708F4B5C02DB73EB7E1968C
:103040003FAF2EAFE197BE016F5F7F4FC70178DFC3
:1030500081E0F601908191119DC0E1E0F0E0D7019F
:103060000D900020E9F7EE19FF09EA0FFB1F3196DA
:103070002DB73EB72E1B3F0B0FB6F8943EBF0FBEC9
:103080002DBFEDB7FEB731964F01882319F06CEFD5
:1030900072E001C0B601C4010E9451D0B701C40161
:1030A0000E9432D06CEF72E0C4010E9432D0CE0197
:1030B000805C9F4FC8DE21E0A701B501E7968EAD89
:1030C0009FADE7970E94966E811137C0F101808114
:1030D0009181892B91F5E8EFFCE08491882341F000
:1030E0009091C00095FFFCCF8093C6003196F5CF3C
:1030F000EEEFF2E08191882339F09091C00095FFC6
:10310000FCCF8093C600F6CF8091C00085FFFCCF36
:103110008AE08093C600F7018191882339F090916D
:10312000C00095FFFCCF8093C600F6CF8091C00011
:1031300085FFFCCF8AE08093C6008BE1FE01EC5B4B
:10314000FF4FDE01959601900D928A95E1F7249646
:103150008EAD9FAD24979CA38BA38BEF93E09AA396
:1031600089A320E030E0AE014F5D5F4FB401C8019C
:10317000FDDECE01819671DECE01805C9F4F6DDE5B
:10318000E1962EAD3FADE1970FB6F8943EBF0FBE6E
:103190002DBF39CF80E001900020E9F73197EC197D
:1031A000FD095DCF8981882309F478C08E3209F446
:1031B0002ACFF80182898E3209F425CF23FD23CF4F
:1031C00081E0303109F080E0F8018483811108C08A
:1031D0008985873409F017CF8A858E3709F413CF94
:1031E000F101808191818130910569F082309105F2
:1031F00081F1892B09F007CFBE016F5F7F4FC301BB
:103200009FDEF60110C0AF96EEADFFADAF978081A7
:103210009181019691838083F6CE9091C00095FFB5
:10322000FCCF8093C60081918111F7CFF30181918A
:10323000882339F09091C00095FFFCCF8093C600A1
:10324000F6CF8091C00085FFFCCF8AE08093C60056
:10325000DACEBE016F5F7F4FC30172DE41145104AD
:1032600039F0B301C2010E941FD0892B79F416C036
:10327000AD96FFADAD972F2F30E0AF96EEADFFAD21
:10328000AF97808191812817390741F0AD96FFAD46
:10329000AD97FF5FAD96FFAFAD97B5CEE3962EAD80
:1032A0003FADE3970FB6F8943EBF0FBE2DBFCA588F
:1032B000DF4F0FB6F894DEBF0FBECDBFDF91CF91C9
:1032C0001F910F91FF90EF90DF90CF90BF90AF9044
:1032D0009F908F907F906F905F904F903F902F9036
:1032E0000895EF92FF920F931F93CF93DF93CDB783
:1032F000DEB76F970FB6F894DEBF0FBECDBF8C015F
:10330000FC01E857FD4F118210827C0183E3E80E37
:10331000F11C40E050E0BA01C7010E94BC6B8BE198
:10332000F701DE01159601900D928A95E1F7F801FB
:1033300081A992A99C838B838BEF93E09A838983E5
:1033400020E030E0AE014F5F5F4F6BE273E0C801F9
:103350000DDECE01019681DD6F960FB6F894DEBFCB
:103360000FBECDBFDF91CF911F910F91FF90EF90D6
:1033700008952BE1FB013496DC01149601900D9227
:103380002A95E1F7FB0122813381FC0133832283FB
:103390000895EF92FF920F931F93CF93DF93EC0169
:1033A0001B828EA9882321F0CE01C3960E949F6CB8
:1033B0007E0189E5E81A8EEFF80A45E360E0C7016F
:1033C0000E941C6781111FC0E8EFFCE084918823F4
:1033D00041F09091C00095FFFCCF8093C6003196DC
:1033E000F5CFE6E8F3E08491882341F09091C000A6
:1033F00095FFFCCF8093C6003196F5CF8091C00039
:1034000085FFFCCF76C08E0104551E4F41E0B70109
:10341000C8010E94A074811126C040E0B701C80114
:103420000E94A07481111FC0EEEFFCE084918823FC
:1034300041F09091C00095FFFCCF8093C60031967B
:10344000F5CFE3E7F3E08491882341F09091C00049
:1034500095FFFCCF8093C6003196F5CF8091C000D8
:1034600085FFFCCF46C0B801CE01C3960E94A96972
:1034700081111FC0EEEFFCE08491882341F0909110
:10348000C00095FFFCCF8093C6003196F5CFE3E6F0
:10349000F3E08491882341F09091C00095FFFCCF28
:1034A0008093C6003196F5CF8091C00085FFFCCF98
:1034B00020C081E08B83E8EFFCE08491882341F019
:1034C0009091C00095FFFCCF8093C6003196F5CF58
:1034D000E8E5F3E08491882341F09091C00095FFE6
:1034E000FCCF8093C6003196F5CF8091C00085FF58
:1034F000FCCF8AE08093C6008E01015D1F4FB801AA
:10350000CE01805B9F4F35DFC25BDF4F198308839D
:10351000DF91CF911F910F91FF90EF900895FC01E3
:10352000128213820895FC012381222311F021E0ED
:1035300022830895FC012281211112820895AF9205
:10354000BF92CF92DF92EF92FF920F931F93CF9390
:10355000DF931F92CDB7DEB78C018FE2FB01819321
:103560005F01D12C41E07801FBE5EF1AFEEFFF0A85
:103570008FE1C82E2D2D30E0F70180819181281731
:103580003907D8F4C29EC001C39E900D11248D58F6
:103590009F4FB501800F911F49830E945069C5015B
:1035A00049815C010196F5012081222321F04D38EB
:1035B00010F44F5FF6CFD394DDCF47FD11C0B501B6
:1035C000C80182539E4F0F90DF91CF911F910F91B1
:1035D000FF90EF90DF90CF90BF90AF900C94506928
:1035E000F50110820F90DF91CF911F910F91FF9005
:1035F000EF90DF90CF90BF90AF9008953F924F92A1
:103600005F926F927F928F929F92AF92BF92CF9272
:10361000DF92EF92FF920F931F93CF93DF93CDB77B
:10362000DEB7AC970FB6F894DEBF0FBECDBF7C01FE
:103630005B01FC018381882309F4EDC0C70182533B
:103640009E4F0E949F6CF7011282CE0101966C0181
:10365000FADB27019EE4490E511CC7018F96F20147
:1036600091838083F50180818F3209F077C06FE20A
:1036700070E0C5010E943DD08C010F5F1F4F9AE0A2
:10368000392E0115110509F46FC06FE270E0C80111
:103690000E943DD04C01009709F467C00817190734
:1036A00008F063C03C01601A710AA301B801CE01A1
:1036B00080960E9466D0E0E2F0E0EC0FFD1FE60D80
:1036C000F71D1082FE01B0968191882339F0909108
:1036D000C00095FFFCCF8093C600F6CF8091C0005C
:1036E00085FFFCCF3092C600F201608171816115C7
:1036F000710519F06C5F7F4F02C060E070E021E05F
:10370000AE01405E5F4FCE0105960E94966E81111C
:103710001EC0E4E3F2E08491882341F09091C00060
:1037200095FFFCCF8093C6003196F5CFFE01B09691
:103730008191882339F09091C00095FFFCCF809350
:10374000C600F6CF8091C00085FFFCCF5FC0F201BC
:10375000D182C08284010F5F1F4F93CFC701805B6E
:103760009F4FF201918380838501F20180819181D5
:10377000009711F0049602C080E090E0B8010E942A
:103780006C6F811103C0EEE0F2E02EC0E6E2F2E0E1
:103790008491882341F09091C00095FFFCCF8093E5
:1037A000C6003196F5CFF8018191882339F09091C8
:1037B000C00095FFFCCF8093C600F6CF8091C0007B
:1037C00085FFFCCF8AE08093C600F701ED57FD4FDF
:1037D00010821182128213821CC09091C00095FF4A
:1037E000FCCF8093C600319684918111F6CFF80109
:1037F0008191882339F09091C00095FFFCCF809390
:10380000C600F6CF8091C00085FFFCCF8EE280938A
:10381000C600C60122DBAC960FB6F894DEBF0FBE21
:10382000CDBFDF91CF911F910F91FF90EF90DF906F
:10383000CF90BF90AF909F908F907F906F905F9050
:103840004F903F900895CF93DF93EC018B818111CE
:1038500003C0ECEEF1E039C0ECEFF1E08491882395
:1038600041F09091C00095FFFCCF8093C600319647
:10387000F5CFFE01ED57FD4F40815181628173818B
:103880002AE030E086EA94E00E943D2A8091C00060
:1038900085FFFCCF8FE28093C600C558DD4F48817D
:1038A00059816A817B812AE030E086EA94E00E94B7
:1038B0003D2A8091C00085FFFCCF0EC09091C000D2
:1038C00095FFFCCF8093C600319684918111F6CF8D
:1038D0008091C00085FFFCCF8AE08093C600DF9115
:1038E000CF910895AF92BF92CF92DF92EF92FF9265
:1038F0000F931F93CF93DF935C01EB01FB010190CA
:103900000020E9F78F0101501109061B170B6C010C
:10391000F2E3CF1AFEEFDF0AF60110826EE470E0E8
:10392000CE010E943DD07C01009729F4F801319727
:10393000EC0FFD1F0DC060E270E00E943DD0EC0175
:1039400021966AE270E0C7010E943DD0FC013197E8
:103950008DE081838AE082831382BE01C501865394
:103960009E4F0E944971F6018081882309F1EEEF94
:10397000FCE08491882341F09091C00095FFFCCF3A
:103980008093C6003196F5CFE6EDF1E0849188236F
:1039900041F09091C00095FFFCCF8093C600319616
:1039A000F5CF8091C00085FFFCCF8AE08093C600F0
:1039B000DF91CF911F910F91FF90EF90DF90CF900B
:1039C000BF90AF9008952F923F924F925F926F9267
:1039D0007F928F929F92AF92BF92CF92DF92EF929F
:1039E000FF920F931F93CF93DF93CDB7DEB7CC5BDE
:1039F000D1090FB6F894DEBF0FBECDBF8C01895739
:103A00009D4F5C01611112C0FC018081882309F483
:103A1000B1C03897C080D180E280F3800E9467C532
:103A2000C616D706E806F90608F4A4C0F501108208
:103A3000F8018381811107C0C801ABDCF8018381E3
:103A4000882309F497C0F80186A58F9385A58F93E5
:103A50008DEC91E09F938F937E01F3EBEF0EF11CC1
:103A6000FF92EF920E9475D00F900F900F900F90E1
:103A70000F900F90B12CF70101900020E9F73197DA
:103A8000EE19FF09BE1684F46701CB0CD11CB7FCFC
:103A9000DA94F6018081992787FD90950E94C0CF26
:103AA000F6018083B394E7CF4801F3E38F0E911CB6
:103AB00040E050E0BA01C4010E94BC6B512C6E0181
:103AC00083E9C80ED11C26EC622E21E0722EFE0185
:103AD00031965F0140E050E0B601C4010E94056BE1
:103AE0001816E4F5412CF60101900020E9F7319712
:103AF000EC19FD094E1674F41601240C311C47FC18
:103B00003A94F101808190E00E94C0CFF10180835E
:103B10004394E9CFF60181858E37E1F245E050E02C
:103B2000B701C6010E9458D0892BA1F6FF92EF92EF
:103B30007F926F92BF92AF920E9475D0C5010E9492
:103B4000282B82EC91E00E94E62B0F900F900F90B3
:103B50000F900F900F9055245394BCCF511004C078
:103B60008FEF9FEFF80104C0F80185A596A5019697
:103B700096A785A7C454DF4F0FB6F894DEBF0FBEDB
:103B8000CDBFDF91CF911F910F91FF90EF90DF900C
:103B9000CF90BF90AF909F908F907F906F905F90ED
:103BA0004F903F902F9008950F931F93CF93DF93E3
:103BB000EC018C0102531E4FC8010E94556CC801D4
:103BC0000E949F6C19821882DF91CF911F910F91F3
:103BD0000895CF92DF92EF92FF920F931F93CF93AE
:103BE000DF93CDB7DEB76F970FB6F894DEBF0FBE89
:103BF000CDBF8C016A017C018EE4E80EF11CC80186
:103C0000805B9F4FF70191838083E65CFD4F22E04C
:103C100030E03183208332967183608340E050E04E
:103C2000BA0104960E94BC6BF701808191812BE15F
:103C3000FC013496DE01159601900D922A95E1F76C
:103C4000FC01828193819C838B838BEF93E09A8329
:103C500089839601AE014F5F5F4F6BE273E0C8014D
:103C600085D9CE010196F9D86F960FB6F894DEBFCC
:103C70000FBECDBFDF91CF911F910F91FF90EF90BD
:103C8000DF90CF9008952F923F924F925F926F9264
:103C90007F928F929F92AF92BF92CF92DF92EF92DC
:103CA000FF920F931F93CF93DF93CDB7DEB7AC97FF
:103CB0000FB6F894DEBF0FBECDBF8C016B01342E62
:103CC000FC018381882309F4CDC2EF52FE4F80812D
:103CD000882309F4FAC0222319F0E8EFFCE0CDC0F4
:103CE0007801F7E1EF1AFEEFFF0AF70180818111F9
:103CF00003C0E8EFFCE035C0EEEFFCE084918823E0
:103D000041F09091C00095FFFCCF8093C6003196A2
:103D1000F5CFE5E1F3E08491882341F09091C00074
:103D200095FFFCCF8093C6003196F5CF4AE050E076
:103D300061E070E086EA94E00E94112A8091C00060
:103D400085FFFCCF8AE08093C6008CE093E00E9460
:103D5000614088C29091C00095FFFCCF8093C6005F
:103D6000319684918111F6CFE3EFF2E084918823BC
:103D700041F09091C00095FFFCCF8093C600319632
:103D8000F5CFF6018191882339F09091C00095FF1D
:103D9000FCCF8093C600F6CFE8EEF2E08491882352
:103DA00041F09091C00095FFFCCF8093C600319602
:103DB000F5CFF70180814DE8B42EB801B89E600DB3
:103DC000711D112462517E4FC801B9DBF70180815A
:103DD000F801B89EE00DF11D1124E251FE4F8191D2
:103DE000882339F09091C00095FFFCCF8093C600E6
:103DF000F6CFE2EEF2E08491882341F09091C0008A
:103E000095FFFCCF8093C6003196F5CF5801FDE7B2
:103E1000AF1AFDEFBF0AF5014081518162817381C4
:103E20002AE030E086EA94E00E943D2A8091C000BA
:103E300085FFFCCF8AE08093C600F7012081F8015E
:103E400084E0289FE00DF11D1124AF0146515E4F23
:103E5000F50180819181A281B381FA0180839183F0
:103E6000A283B3832F5FF701208329C09091C00004
:103E700095FFFCCF8093C600319684918111F6CFD7
:103E8000E1EDF2E08491882341F09091C00095FF2C
:103E9000FCCF8093C6003196F5CFF601819188233F
:103EA00039F09091C00095FFFCCF8093C600F6CF0B
:103EB0008091C00085FFFCCF8AE08093C600C801D6
:103EC00082539E4F0E949F6C30C0F801E751FE4F15
:103ED0001082E8EFFCE08491882341F09091C000CB
:103EE00095FFFCCF8093C6003196F5CFE0ECF2E071
:103EF0008491882341F09091C00095FFFCCF80937E
:103F0000C6003196F5CFF6018191882339F0909162
:103F1000C00095FFFCCF8093C600F6CF8091C00013
:103F200085FFFCCF8AE08093C600F8011282CE01A3
:103F300001965C010E94231728019EE4490E511C42
:103F4000C8018F96F20191838083F60180818F32C0
:103F500009F077C07601FFEFEF1AFF0A3AE0232E4F
:103F6000E114F10409F473C06FE270E0C7010E942C
:103F70003DD04C01009709F46BC0E816F90608F033
:103F800067C03C016E187F08A301B701CE0180967F
:103F90000E9466D0E0E2F0E0EC0FFD1FE60DF71D99
:103FA0001082FE01B0968191882339F09091C00073
:103FB00095FFFCCF8093C600F6CF8091C00085FFAF
:103FC000FCCF2092C600F2016081718161157105FC
:103FD00019F06C5F7F4F02C060E070E021E0AE013D
:103FE000405E5F4FCE0105960E94966E811121C002
:103FF000ECEAF2E08491882341F09091C00095FFB3
:10400000FCCF8093C6003196F5CFFE01B09681912A
:10401000882339F09091C00095FFFCCF8093C600B3
:10402000F6CF8091C00085FFFCCF8EE28093C60062
:1040300016C1F201B182A0827401FFEFEF1AFF0AEC
:104040008FCFC801805B9F4FF201918380837601FF
:10405000C80182539E4F4C01F2016081718133206F
:1040600009F4A3C06115710519F06C5F7F4F02C0A0
:1040700060E070E021E0A701C4010E94966E81110A
:1040800003C0E4E7F2E075C0980125583D4FF40104
:1040900081899289A389B489F90180839183A2835C
:1040A000B383EEE9F2E08491882341F09091C0005F
:1040B00095FFFCCF8093C6003196F5CFF701819133
:1040C000882339F09091C00095FFFCCF8093C60003
:1040D000F6CFE6E9F2E08491882341F09091C000A8
:1040E00095FFFCCF8093C6003196F5CFF901408152
:1040F0005181628173812AE030E086EA94E00E9477
:104100003D2A8091C00085FFFCCF8AE08093C600E5
:10411000F801ED57FD4F1082118212821382E8E8F8
:10412000F2E08491882341F09091C00095FFFCCF8C
:104130008093C6003196F5CF8091C00085FFFCCFFB
:104140008AE08093C600A70160E070E0C80141DD0D
:10415000F8018289882319F0C801429601C0C7017D
:1041600060E07BC09091C00095FFFCCF8093C600BB
:10417000319684918111F6CFF7018191882339F02E
:104180009091C00095FFFCCF8093C600F6CFE1E789
:10419000F2E08491882309F462C09091C00095FFF9
:1041A000FCCF8093C6003196F4CF6115710519F0EC
:1041B0006C5F7F4F02C060E070E026E5A701C4019C
:1041C0000E94966E811125C0EDE5F2E0849188236E
:1041D00041F09091C00095FFFCCF8093C6003196CE
:1041E000F5CFF7018191882339F09091C00095FFB8
:1041F000FCCF8093C600F6CFEAE5F2E084918823F5
:1042000071F19091C00095FFFCCF8093C60031966C
:10421000F5CF81E0F8018083E8E4F2E0849188231F
:1042200041F09091C00095FFFCCF8093C60031967D
:10423000F5CFF6018191882339F09091C00095FF68
:10424000FCCF8093C600F6CF8091C00085FFFCCFE5
:104250008AE08093C60060E0C7010E94E79AC5012A
:104260000E942D17AC960FB6F894DEBF0FBECDBFDF
:10427000DF91CF911F910F91FF90EF90DF90CF9042
:10428000BF90AF909F908F907F906F905F904F9076
:104290003F902F90089521E0FC01218340E0F3CC72
:1042A000CF92DF92EF92FF920F931F93CF93DF9302
:1042B000CDB7DEB76F970FB6F894DEBF0FBECDBF98
:1042C0008C016C012EE4C20ED11C805B9F4FF60165
:1042D00091838083E65CFD4F21E030E031832083D1
:1042E0007801F6E7EF1AFDEFFF0AF701118210825D
:1042F00040E050E0BA0104960E94BC6BF601808158
:1043000091812BE1FC013496DE01159601900D920E
:104310002A95E1F7FC01828193819C838B838BEF4B
:1043200093E09A83898320E030E0AE014F5F5F4FD6
:104330006BE273E0C8010E94B617CE0101960E949D
:104340002D17F701808191816F960FB6F894DEBF2B
:104350000FBECDBFDF91CF911F910F91FF90EF90D6
:10436000DF90CF900895AF92BF92CF92DF92EF92FD
:10437000FF920F931F93CF93DF93CDB7DEB76F9765
:104380000FB6F894DEBF0FBECDBF8C017B01CE010E
:1043900001960E942317F801E95AFF4F80816801B6
:1043A000811104C02FE2C20ED11C03C080E5C80EEB
:1043B000D11C21E0A701B6016C5F7F4FCE010596AD
:1043C0000E94966E81112DC0E8EFFCE08491882355
:1043D00041F09091C00095FFFCCF8093C6003196CC
:1043E000F5CFECEAF1E08491882341F09091C00090
:1043F00095FFFCCF8093C6003196F5CFF7018191F0
:10440000882339F09091C00095FFFCCF8093C600BF
:10441000F6CF8091C00085FFFCCF8AE08093C60074
:1044200036C0F801EB55FE4F808191818A309105AD
:1044300030F59C012F5F3F4F318320832FE1289F70
:104440007001299FF00C11242FE6E20EF11CE00E02
:10445000F11E5C01B701C7014F960E94B91981E0B6
:10446000A81AB1082FE1E21AF1088FEFA816B806D2
:1044700089F7B601C80181599F4F0E94B919BE0141
:104480006F5F7F4FC801805B9F4F0E94B919CE01BB
:1044900001960E942D176F960FB6F894DEBF0FBEDF
:1044A000CDBFDF91CF911F910F91FF90EF90DF90E3
:1044B000CF90BF90AF900895EF92FF920F931F930C
:1044C000CF93DF93EC01CB55DE4F28813981211545
:1044D0003105F9F021503109398328838C010159C4
:1044E0001F4FB801805B9F4F0E94B919C80100E0BF
:1044F00010E07C012FE1E20EF11C288139810217C6
:10450000130738F40F5F1F4FB7010E94B919C70195
:10451000F0CFDF91CF911F910F91FF90EF90089511
:10452000EF92FF920F931F93CF93DF93EC010E94C2
:10453000747E8E0107511E4FF80180819E01225327
:104540003E4F79018823A1F1C9010E949F6CF801B7
:10455000808181508083BE01FDE88F9F600D711DB9
:10456000112462517E4F21E041E0CE018CDBF80145
:104570008081FE0124E0829FE00DF11D1124E651AF
:10458000FE4F4081518162817381FE01ED57FD4FE5
:104590004083518362837383C7010E94BC6BCE0149
:1045A000DF91CF911F910F91FF90EF900C94931A90
:1045B000C9010E949F6C1A8280EA91E00E94E62B5A
:1045C00080911C0F882349F110921C0F0091540513
:1045D00010E0E801CC0FDD1FC75CDC4E68817981FB
:1045E000882777FD8095982F0E9483C920914502E6
:1045F0003091460240914702509148020E94E4CA1D
:1046000018165CF419821882C801DF91CF911F91AE
:104610000F91FF90EF900C94C682DF91CF911F9184
:104620000F91FF90EF900895AF92BF92DF92EF92BB
:10463000FF920F931F93CF93DF93CDB7DEB7E09731
:104640000FB6F894DEBF0FBECDBF80E1E6ECF2E01E
:10465000DE01919601900D928A95E1F780E1E6EDF9
:10466000F2E0DE01519601900D928A95E1F780E12A
:10467000E6EEF2E0DE01119601900D928A95E1F7E7
:104680007E0181E2E80EF11C0DE51FE0BE016F5EC8
:104690007F4F4DE65FE09E012F5F3F4F9DE4A92EC7
:1046A0009FE0B92ED12CF70181919191A191B19107
:1046B0007F01F80181939193A193B1938F01FB0145
:1046C00081919191A191B191BF01FA01819391934F
:1046D000A193B193AF01F90181919191A191B19110
:1046E0009F01F50181939193A193B1935F01D394BD
:1046F000F4E0DF12D8CF0E94E76580E090E8ABEBF2
:10470000B4E48093450F9093460FA093470FB09366
:10471000480F8093410F9093420FA093430FB093A3
:10472000440F80933D0F90933E0FA0933F0FB093A3
:10473000400F1092490F10924A0F10924B0F109297
:104740004C0F80E29EE4A0E0B0E080937D0F909358
:104750007E0FA0937F0FB093800F10922D0F1092B9
:104760002E0F10922F0F1092300F80E090E0A0EAF1
:10477000B1E48093390F90933A0FA0933B0FB0931D
:104780003C0F8DEC9CECACECBEE38093350F90932A
:10479000360FA093370FB093380F80E090E0A0EA77
:1047A000B0E48093310F9093320FA093330FB09306
:1047B000340F1092690510926A0510926B051092E1
:1047C0006C051092650510926605109267051092AF
:1047D00068051092610510926205109263051092AF
:1047E000640588EC90E09093CB138093CA138CE31C
:1047F00090E09093C9138093C8138FEF90E090934B
:10480000C7138093C61320EF30E03093C513209375
:10481000C41324E630E03093C3132093C213909363
:10482000C1138093C01380E290E090938013809333
:104830007F1382E598EBA6E8B1E48093670290933A
:104840006802A0936902B0936A0267ED73EA80EB95
:104850009FE30E94238C60936302709364028093B1
:1048600065029093660261E77DE38DE492E40E9425
:104870002F8C60935F02709360028093610290932B
:10488000620280E090E0A8ECB2E480935B02909337
:104890005C02A0935D02B0935E0284E190E090938D
:1048A0000B0280930A020E946A7F10926D0580E0DD
:1048B00090E0A0E4B0E48093230290932402A093BC
:1048C0002502B09326020E94964FE8EFFCE0849107
:1048D000882341F09091C00095FFFCCF8093C600E3
:1048E0003196F5CFE7EEF5E08491882341F0909181
:1048F000C00095FFFCCF8093C6003196F5CF809124
:10490000C00085FFFCCF8AE08093C600E0960FB61A
:10491000F894DEBF0FBECDBFDF91CF911F910F91F5
:10492000FF90EF90DF90BF90AF900895CF93C82F86
:10493000882369F140915D0F50915E0F60915F0F88
:104940007091600F8FEC95E061D64091610F5091AE
:10495000620F6091630F7091640F8CEC95E056D6F6
:104960004091650F5091660F6091670F7091680FCD
:1049700089EC95E04BD64091690F50916A0F609198
:104980006B0F70916C0F86EC95E040D62FC0E8EF6E
:10499000FCE08491882341F09091C00095FFFCCF0A
:1049A0008093C6003196F5CFE7EDF5E0849188233A
:1049B00041F09091C00095FFFCCF8093C6003196E6
:1049C000F5CF8091C00085FFFCCF8AE08093C600C0
:1049D000E8EFFCE08491882309F4ACCF9091C0000B
:1049E00095FFFCCF8093C6003196F4CF8091C00034
:1049F00085FFFCCF8AE08093C600CC2369F140910B
:104A00006D0F50916E0F60916F0F7091700F83EA70
:104A100095E0FCD54091710F5091720F6091730F2A
:104A20007091740F80EA95E0F1D54091750F509127
:104A3000760F6091770F7091780F8DE995E0E6D54C
:104A40004091790F50917A0F60917B0F70917C0F9C
:104A50008AE995E0DBD52FC0E8EFFCE0849188235C
:104A600041F09091C00095FFFCCF8093C600319635
:104A7000F5CFECEAF5E08491882341F09091C000F5
:104A800095FFFCCF8093C6003196F5CF8091C00092
:104A900085FFFCCF8AE08093C600E8EFFCE08491BC
:104AA000882309F4ACCF9091C00095FFFCCF809390
:104AB000C6003196F4CF8091C00085FFFCCF8AE01C
:104AC0008093C600CC2369F140914D0F50914E0F59
:104AD00060914F0F7091500F83E795E0A8D54091FA
:104AE000510F5091520F6091530F7091540F80E706
:104AF00095E09DD54091550F5091560F6091570FFD
:104B00007091580F8DE695E092D54091590F5091D4
:104B10005A0F60915B0F70915C0F8AE695E087D524
:104B20002FC0E8EFFCE08491882341F09091C00011
:104B300095FFFCCF8093C6003196F5CFECE7F5E00A
:104B40008491882341F09091C00095FFFCCF809321
:104B5000C6003196F5CF8091C00085FFFCCF8AE07A
:104B60008093C600E8EFFCE08491882309F4ACCF81
:104B70009091C00095FFFCCF8093C6003196F4CF92
:104B80008091C00085FFFCCF8AE08093C600CC23D3
:104B900011F14091450F5091460F6091470F709170
:104BA000480F8FE295E032D54091410F5091420F6E
:104BB0006091430F7091440F8CE295E027D54091AE
:104BC0003D0F50913E0F60913F0F7091400F89E271
:104BD00095E01CD52FC0E8EFFCE08491882341F0DC
:104BE0009091C00095FFFCCF8093C6003196F5CF21
:104BF000E8E3F5E08491882341F09091C00095FFAF
:104C0000FCCF8093C6003196F5CF8091C00085FF20
:104C1000FCCF8AE08093C600E8EFFCE08491882313
:104C200009F4B7CF9091C00095FFFCCF8093C600E8
:104C30003196F4CF8091C00085FFFCCF8AE080934D
:104C4000C600CC2309F443C04091490F50914A0F4C
:104C500060914B0F70914C0F8DE694E0D7D440914A
:104C60002D0F50912E0F60912F0F7091300F8AE60B
:104C700094E0CCD440917D0F50917E0F60917F0FD6
:104C80007091800F87E694E0D2D44091390F509113
:104C90003A0F60913B0F70913C0F84E694E0B6D4DC
:104CA0004091350F5091360F6091370F7091380F4A
:104CB00081E694E0ABD44091310F5091320F609176
:104CC000330F7091340F8EE594E0A0D42FC0E8EF3D
:104CD000FCE08491882341F09091C00095FFFCCFC7
:104CE0008093C6003196F5CFE6E7F4E084918823FF
:104CF00041F09091C00095FFFCCF8093C6003196A3
:104D0000F5CF8091C00085FFFCCF8AE08093C6007C
:104D1000E8EFFCE08491882309F496CF9091C000DD
:104D200095FFFCCF8093C6003196F4CF8091C000F0
:104D300085FFFCCF8AE08093C600CC2311F140911F
:104D4000610550916205609163057091640583E48B
:104D500094E05CD4409165055091660560916705CB
:104D60007091680580E494E051D4409169055091B8
:104D70006A0560916B0570916C058DE394E046D4F3
:104D80002FC0E8EFFCE08491882341F09091C000AF
:104D900095FFFCCF8093C6003196F5CFECE4F4E0AC
:104DA0008491882341F09091C00095FFFCCF8093BF
:104DB000C6003196F5CF8091C00085FFFCCF8AE018
:104DC0008093C600E8EFFCE08491882309F4B7CF14
:104DD0009091C00095FFFCCF8093C6003196F4CF30
:104DE0008091C00085FFFCCF8AE08093C600CC2371
:104DF00011F14091CA135091CB13662757FD60956E
:104E0000762F85E194E013D44091C8135091C913D3
:104E1000662757FD6095762F82E194E008D4409193
:104E2000C6135091C713662757FD6095762F8FE004
:104E300094E0FDD32FC0E8EFFCE08491882341F09B
:104E40009091C00095FFFCCF8093C6003196F5CFBE
:104E5000E1E2F4E08491882341F09091C00095FF55
:104E6000FCCF8093C6003196F5CF8091C00085FFBE
:104E7000FCCF8AE08093C600E8EFFCE084918823B1
:104E800009F4B7CF9091C00095FFFCCF8093C60086
:104E90003196F4CF8091C00085FFFCCF8AE08093EB
:104EA000C600CC2311F14091C4135091C51366275D
:104EB00057FD6095762F83E094E0B9D34091C213FB
:104EC0005091C313662757FD6095762F80E094E0DC
:104ED000AED34091C0135091C113662757FD609522
:104EE000762F8DEF93E0A3D30DC0E8EFFCE0849123
:104EF0008823C9F29091C00095FFFCCF8093C60033
:104F00003196F5CF8091C00085FFFCCF8AE0809379
:104F1000C600CC2309F43CC040916702509168025E
:104F20006091690270916A0286EE93E06FD360919E
:104F300063027091640280916502909166020E9402
:104F4000298CAB01BC0183EE93E060D360915F02DA
:104F50007091600280916102909162020E94358C92
:104F6000AB01BC0180EE93E051D340915B025091C4
:104F70005C0260915D0270915E028DED93E046D31C
:104F800060910A0270910B028AED93E02ED32FC03C
:104F9000E8EFFCE08491882341F09091C00095FFF8
:104FA000FCCF8093C6003196F5CFEFEEF3E084910D
:104FB000882341F09091C00095FFFCCF8093C600FC
:104FC0003196F5CF8091C00085FFFCCF8AE08093B9
:104FD000C600E8EFFCE08491882309F49DCF90910E
:104FE000C00095FFFCCF8093C6003196F4CF80912E
:104FF000C00085FFFCCF8AE08093C600CC2361F01F
:1050000040917F1350918013662757FD6095762F4E
:1050100083EC93E00CD32EC0E8EFFCE0849188236E
:1050200041F09091C00095FFFCCF8093C60031966F
:10503000F5CFECECF3E08491882341F09091C0002F
:1050400095FFFCCF8093C6003196F5CF8091C000CC
:1050500085FFFCCF8AE08093C600E8EFFCE08491F6
:10506000882371F29091C00095FFFCCF8093C60019
:105070003196F5CF8091C00085FFFCCF8AE0809308
:10508000C600CC2361F0409123025091240260912C
:105090002502709126028DE993E0B8D245C0E8EF71
:1050A000FCE08491882341F09091C00095FFFCCFF3
:1050B0008093C6003196F5CFE0EBF3E0849188232E
:1050C00041F09091C00095FFFCCF8093C6003196CF
:1050D000F5CF80916D05811103C0E6EAF3E00CC0C5
:1050E0008091C00085FFFCCF0EC09091C00095FF5D
:1050F000FCCF8093C600319684918111F6CF8091C8
:10510000C00085FFFCCF8AE08093C600E8EFFCE09A
:105110008491882309F4B7CF9091C00095FFFCCF0C
:105120008093C6003196F4CF8091C00085FFFCCFFC
:105130008AE08093C60080916D05811123C0C11162
:105140000DC0E8EFFCE007C09091C00095FFFCCFD8
:105150008093C600319684918111F6CFE3E9F3E0A4
:1051600007C09091C00095FFFCCF8093C600319698
:1051700084918111F6CF8091C00085FFFCCF8AE039
:105180008093C600CF9108951F920F920FB60F9291
:1051900011240BB60F922F933F934F935F936F930E
:1051A0008F939F93EF93FF936091C6002091270503
:1051B00030912805C90101968F77992740912905DB
:1051C00050912A058417950741F0F901E955FB4FE5
:1051D00060839093280580932705FF91EF919F911D
:1051E0008F916F915F914F913F912F910F900BBED7
:1051F0000F900FBE0F901F9018959A01AB012115CB
:1052000081EE38074105510549F182E08093C000E5
:1052100060E079E08DE390E00E94D4CC2150310928
:1052200041095109CA01B90122E030E040E050E0F3
:105230000E94D4CC3093C5002093C4008091C1005B
:1052400080618093C1008091C10088608093C1001B
:105250008091C10080688093C10008951092C000C1
:1052600020E130E0E7CF2091290530912A05809197
:105270002705909128058217930771F0F901E955E8
:10528000FB4F80812F5F3F4F2F77332730932A05C5
:105290002093290590E008958FEF9FEF0895809166
:1052A000290590912A059093280580932705089554
:1052B0004F925F926F927F928F929F92AF92BF9226
:1052C000CF92DF92EF92FF920F931F93CF93DF93D2
:1052D000CDB7DEB7A0970FB6F894DEBF0FBECDBF37
:1052E0005C014115510561057105E9F420E030E0EC
:1052F00040E350E060E070E0A0960FB6F894DEBFA7
:105300000FBECDBFDF91CF911F910F91FF90EF9016
:10531000DF90CF90BF90AF909F908F907F906F90D5
:105320005F904F905BC08E010F5F1F4FC12CD12C3F
:1053300076014801422E512C612C712C8FEFC81A36
:10534000D80AE80AF80ACB01BA01A30192010E9427
:10535000B2CCCA01F80161938F01A901BC014115CA
:1053600051056105710551F7F1E0CF1AD108E10847
:10537000F108F401EC0DFD1D80818A3010F440E34A
:1053800001C047E3480F552747FD5095652F752FFE
:1053900020E030E0C50122D081E0C81AD108E10840
:1053A000F108EFEFCE16DE06EE06FE0611F7A09628
:1053B0000FB6F894DEBF0FBECDBFDF91CF911F9126
:1053C0000F91FF90EF90DF90CF90BF90AF909F90A4
:1053D0008F907F906F905F904F90089521153105C9
:1053E00039F48091C00085FFFCCF4093C60008953A
:1053F0002A30310509F41CC05BCFCF93DF93EC0159
:1054000020E030E04DE050E060E070E0E7DF20E0D9
:1054100030E04AE050E060E070E0CE01DF91CF91F3
:10542000DDCF9A01AB01662757FD6095762FD6CF69
:10543000CF92DF92EF92FF92CF93DF93EC016A015C
:105440007B0177FF0FC020E030E04DE250E060E0EC
:1054500070E0C4DFF094E094D094C094C11CD11CDF
:10546000E11CF11C2AE0B701A601CE01DF91CF912A
:10547000FF90EF90DF90CF901BCF2115310539F4CD
:105480008091C00085FFFCCF4093C600089510CFE7
:105490009A01462F50E060E070E0EFCFCF93DF93AA
:1054A000EC019A01AB0160E070E0E7DFCE01DF9133
:1054B000CF91A3CF8F929F92AF92BF92CF92DF9264
:1054C000EF92FF921F93CF93DF93EC016A017B0170
:1054D000122F20E030E0A901C701B6010E94E1C807
:1054E00087FF0CC020E030E04DE250E060E070E06B
:1054F000CE0174DFF7FAF094F7F8F094B12C60E085
:1055000070E080E09FE3B11641F020E030E040E23F
:1055100051E40E94E8C8B394F6CF9B01AC01C701E7
:10552000B6010E9408C86B017C010E9455C94B015D
:105530005C010E9481C99B01AC01C701B6010E94B8
:1055400007C86B017C012AE0B501A401CE01B0DEE1
:10555000112341F020E030E04EE250E060E070E0E6
:10556000CE013CDF112319F120E030E040E251E4AC
:10557000C701B6010E94B6CB6B017C010E9450C9E5
:105580004B01AA2497FCA094BA2CB501A401CE012A
:105590004FDFC501B4010E9483C99B01AC01C70163
:1055A000B6010E9407C86B017C011150DBCFDF916F
:1055B000CF911F91FF90EF90DF90CF90BF90AF9071
:1055C0009F908F90089576CFFC016591759185919C
:1055D000949108950E9467C56093440570934505B2
:1055E00080934605909347050895FC01249122235A
:1055F00041F03091C00035FFFCCF2093C6000196EA
:10560000F4CF4AE050E086EA94E00BCFFC0124910D
:10561000222341F03091C00035FFFCCF2093C6001B
:105620000196F4CF22E030E086EA94E0CCCFFC0192
:105630002491222341F03091C00035FFFCCF20930C
:10564000C6000196F4CF2AE030E086EA94E015CF58
:10565000BC01FC0180818B3309F45FC08091570746
:105660009091580704970CF043C080915B0790918C
:105670005C07019797FF02C083E090E090935C077E
:1056800080935B07E1E1F3E08191882339F0909109
:10569000C00095FFFCCF8093C600F6CFFB0181913F
:1056A000882339F09091C00095FFFCCF8093C6000D
:1056B000F6CF8091C00085FFFCCF8AE08093C600C2
:1056C00020915B0730915C0740E6429FC001439FF9
:1056D000900D112489529A4F0E9451D08091570702
:1056E000909158070196909358078093570713C0DD
:1056F00086E795E00E9451D081E08093D605EBE1EA
:10570000F3E08191882339F09091C00095FFFCCFA0
:105710008093C600F6CF81E0089580E00895DF927F
:10572000EF92FF920F931F93CF93DF93CDB7DEB726
:105730006E970FB6F894DEBF0FBECDBF60914805DF
:105740007091490561157105A1F04DE150E08E01A0
:105750000F5F1F4FC8010E94E0CF1E8EF8017F012E
:10576000E01AF10AD190DD2031F08AE0D812F7CFAB
:1057700002C080E01DC0F801EE0DFF1D1082C801BF
:1057800067DF8823A1F0DD2071F08FEFE81AF80AB7
:1057900080914805909149058E0D9F1D9093490574
:1057A0008093480504C0109249051092480581E095
:1057B0006E960FB6F894DEBF0FBECDBFDF91CF91CE
:1057C0001F910F91FF90EF90DF90089590934905FE
:1057D00080934805A4CF1092350560E08FE20E94C7
:1057E00033C79FB7F894EBE0F1E080818460808359
:1057F0009FBF0895269A2E9808958F929F92AF92F8
:10580000BF92CF92DF92EF92FF9280915405811167
:105810003FC08091350581113BC0C0901F13D090CF
:105820002013E0902113F090221320E030E043E4B5
:1058300053E4C701B6010E94E4CA1816E4F060916F
:10584000391370913A13882777FD8095982F0E941D
:1058500083C94B015C0120E030E040EA50E4C7011D
:10586000B6010E9407C89B01AC01C501B4010E94AA
:10587000E4CA18166CF48FE20E94A1C7019741F4A4
:105880008CE293E0E5DE882319F081E08093350512
:10589000FF90EF90DF90CF90BF90AF909F908F9050
:1058A000089599DFA7DF40E950ED63E070E086EAF4
:1058B00094E0A3DC0E94142380E038D80E947F9DEE
:1058C0002FEF83ED90E3215080409040E1F700C03E
:1058D0000000E3EBFCE08491882341F09091C0004C
:1058E00095FFFCCF8093C6003196F5CF8091C00024
:1058F00085FFFCCF8AE08093C600E8EFFCE084914E
:10590000882341F09091C00095FFFCCF8093C600A2
:105910003196F5CF84B780FF14C0EBEAFCE0949198
:10592000992341F02091C00025FFFCCF9093C60041
:105930003196F5CF9091C00095FFFCCF9AE09093FF
:10594000C60081FF14C0EBE9FCE09491992341F07B
:105950002091C00025FFFCCF9093C6003196F5CF73
:105960009091C00095FFFCCF9AE09093C60082FF13
:1059700014C0EAE8FCE09491992341F02091C00022
:1059800025FFFCCF9093C6003196F5CF9091C000D3
:1059900095FFFCCF9AE09093C60083FF14C0EAE71E
:1059A000FCE09491992341F02091C00025FFFCCFA9
:1059B0009093C6003196F5CF9091C00095FFFCCF33
:1059C0009AE09093C60085FF14C0EAE6FCE084915B
:1059D000882341F09091C00095FFFCCF8093C600D2
:1059E0003196F5CF8091C00085FFFCCF8AE080938F
:1059F000C60014BEE3E6FCE08491882341F0909158
:105A0000C00095FFFCCF8093C6003196F5CFE8E546
:105A1000FCE08491882341F09091C00095FFFCCF79
:105A20008093C6003196F5CF8091C00085FFFCCFF2
:105A30008AE08093C600E8EFFCE08491882341F07F
:105A40009091C00095FFFCCF8093C6003196F5CFB2
:105A5000E8E4FCE08491882341F09091C00095FF38
:105A6000FCCF8093C6003196F5CFE7E3FCE084914C
:105A7000882341F09091C00095FFFCCF8093C60031
:105A80003196F5CFEBE2FCE08491882341F09091D0
:105A9000C00095FFFCCF8093C6003196F5CFE4E1BE
:105AA000FCE08491882341F09091C00095FFFCCFE9
:105AB0008093C6003196F5CF8091C00085FFFCCF62
:105AC0008AE08093C600E9E0FCE08491882341F0FD
:105AD0009091C00095FFFCCF8093C6003196F5CF22
